:100000000C9471000C94C70F0C94D10F0C94DB0F5F
:100010000C94E50F0C94EF0F0C94F90F0C94D2197B
:100020000C9403100C9490000C9490000C94762C7B
:100030000C944A1F0C94910F0C94A70F0C947F10F2
:100040000C94800F0C947E210C9490000C949000E2
:100050000C9490000C940D100C9490000C94900053
:100060000C949C0F0C9490000C9490000C949000B5
:100070000C9490000C9490000C9490000C949000C0
:100080000C9490000C94881D0C94900016221A2257
:100090001E22222228222C2247224F228922432359
:1000A00066237B238E26C12619270D224D275B2729
:1000B0008927DB28EA280029032907292729372946
:1000C00048294B294F295229562967297829A329DC
:1000D000B729BA29142ACE29D129D42900081C18F5
:1000E000141011241FBECFEFD0E1DEBFCDBF11E051
:1000F000A0E0B1E0E8E9F4E600E00BBF02C0079041
:100100000D92AA31B107D9F713E0AAE1B1E001C01D
:100110001D92A63AB107E1F70E944A2A0C944B328D
:100120000C9400008FB7F894992708958FBF089515
:10013000282F9FB7F894E82FFF27E752FE4F8081C2
:100140008F3F81F4E091A303E21771F40BC0209379
:10015000910304C0FF27E752FE4F20832093A3039F
:1001600020E007C025E005C0809191038F3F91F703
:10017000EECF892F99278FBF822F9927089586E088
:100180000E949800992708958FB7F8949927609353
:100190001B018FBF84E00E949800089588E00E94B0
:1001A00098009927089589E10E9498009927089559
:1001B000EF920F931F93AE2D99E0899FF0011124C8
:1001C000E653FD4F40835183628373830483158319
:1001D00026833783A17080858E7F8A2B82608087FB
:1001E0008DE00E9498001F910F91EF9008957FB7C6
:1001F000F89462B720914B0130914C0140914D0130
:1002000050914E0106B601FE0FC081B792B7280F7C
:10021000311D411D511D2F5F3F4F4F4F5F4F290F24
:10022000311D411D511D04C0260F311D411D511DA1
:10023000872F99278FBFCA01B9010895AF92BF9246
:10024000CF92DF92EF92FF920F931F93F82E5A01F5
:100250006B010E94F700AB01BC0181E0E82E960122
:1002600085018F2D0E94D8001F910F91FF90EF9074
:10027000DF90CF90BF90AF900895982F9695969568
:100280009695E9ECF2E0E90FF11D877021E030E08E
:1002900002C0220F331F8A95E2F7808182239927BB
:1002A00008950F931F93CF93DF93182F8FB7F89470
:1002B000282F3327022F80912901882359F581E0C7
:1002C0008093290110932E032FBF8FB7F89499279D
:1002D000379A8FBF8FB7F894C82FDD279C2F809156
:1002E0000D018730A9F480912901813021F481E149
:1002F0000E94980009C0823059F480912E038093A7
:100300000D0183E080932901CFBF80E090E025C0FC
:100310009FBFFBCF80912E03811711F42FBFF5CF24
:10032000812F0E943D01882319F085E090E014C0E0
:10033000E12FE695E695E695FF27E753FD4F177009
:1003400081E090E002C0880F991F1A95E2F72081A2
:10035000282B208380E090E00FBFDF91CF911F9189
:100360000F9108958330A9F0843028F4813069F02A
:10037000823068F408C0853081F0853060F08630C6
:1003800071F081E00FC080E00BC081E009C082E025
:1003900007C083E005C084E003C085E001C086E0BB
:1003A0000E945101992708958FB7F89499272091B9
:1003B00015032093180123E0209340018FBF809103
:1003C0001801882321F485E00E94B201089581304C
:1003D00019F486E00E94B20108958FB7F894992726
:1003E00020917400209314038FBF08950E94ED01A3
:1003F000809114038E7F806980931403809374002E
:100400000895982F969596959695EDE0F2E0E90F70
:10041000F11D877021E030E002C0220F331F8A9562
:10042000E2F780818223992708950F931F93CF933A
:10043000DF93182F8FB7F894282F3327022F80913E
:100440002F01882331F581E080932F01109303025F
:100450002FBF8FB7F894C82FDD279C2F80910F01F5
:100460008230A9F480912F01813021F487E10E942C
:10047000980009C0823059F48091030280930F01E3
:1004800083E080932F01CFBF80E090E025C09FBF25
:10049000FBCF80910302811711F42FBFF5CF812F7D
:1004A0000E940102882319F085E090E014C0E12F3A
:1004B000E695E695E695FF27E35FFD4F177081E02F
:1004C00090E002C0880F991F1A95E2F72081282B2F
:1004D000208380E090E00FBFDF91CF911F910F91BB
:1004E000089580E00E9415029927089581E00E94F6
:1004F000150299270895982F969596959695EFE968
:10050000F3E0E90FF11D877021E030E002C0220F17
:10051000331F8A95E2F780818223992708959FB738
:10052000F894292F3327422F90910F01981741F407
:1005300080912F01833021F42FBF81E090E0089556
:100540004FBF80E090E0089581E00E948F029927DC
:100550000895982F969596959695E7ECF2E0E90F19
:10056000F11D877021E030E002C0220F331F8A9511
:10057000E2F7808182239927089580919403833044
:1005800099F0843028F4813099F0823078F412C0E8
:10059000853031F0853030F0863071F4E8E031C0DC
:1005A000E8E02CC0E8E027C0E8E022C0E8E01DC099
:1005B000E8E018C0E8E013C08330C9F0843028F4C4
:1005C000813079F0823080F409C08530B1F0853017
:1005D00088F08630A9F02FE1E0E014C0E0E02EE1E1
:1005E00011C0E0E023E00EC0E0E024E00BC0E0E05A
:1005F00021E008C0E0E022E005C0E0E026E002C023
:10060000E0E025E0622F7FB7F89480910C028E7FA6
:1006100080930C0287B1982F9F718295869586955D
:10062000837019F080E090E012C0822F88508631EC
:1006300018F081E090E00BC040E050E03327892FB4
:1006400099272817390711F441E050E0CA01982F83
:100650009170990F80910C028178262F2F71422F73
:10066000440F440F892B842B80930C02332727B926
:10067000E83059F5809192039091930321E08638F8
:10068000920718F087E090E01FC0833C910518F0B6
:1006900086E090E019C08136910518F085E090E081
:1006A00013C08033910518F084E090E00DC08831CC
:1006B000910518F083E090E007C00C9718F082E0F5
:1006C00090E002C080E090E0E82FE770887D8E2BFC
:1006D000886D992786B9872F99278FBF089591E054
:1006E0009093B902809394030E94BD0280E090E051
:1006F0000895DC018C918251FD01E80FF11D848584
:100700008E3329F5AA59B14011F56623D9F48091A9
:10071000B8028F5F8093B802E091CF01F091D001D1
:1007200020813327322F222781819927282B392BAB
:1007300080910001909101012817390719F48481F3
:100740008F5F8483809123028D7F8093230208959D
:10075000FC0182819927582F442781819927482BB2
:10076000592BCA01892F9927869586958370907099
:100770008230910559F08330910559F0892B19F495
:1007800020E030E008C02CE93FEF05C022E030E077
:1007900002C028E030E0CA0184E0989F812D9927AB
:1007A00011248230910559F08330910559F0892B3D
:1007B00019F480E090E008C08CE99FEF05C082E06A
:1007C00090E002C088E090E0280F391F2A5F3F4F79
:1007D000CF01820F931F0895282F9FB7F8946623A7
:1007E00049F0E82FFF27E15EFC4F8081882311F05C
:1007F00021E006C0E22FFF27E15EFC4F608320E08E
:10080000892F99278FBF822F99270895E82F8FB7B7
:10081000F894282F332790E0FF27E15EFC4F80817A
:10082000861709F491E02FBF892F9927089560E07A
:1008300080E00E94060499270895882311F06E9A9B
:1008400008956E980895882311F06F9A08956F980F
:10085000089580E00E941D04BA9ABB98B99AB89A8C
:100860006C9A80E00E9423046B986A9881E00E9451
:100870001D04709A8DB18C7F8DB908951F93182F28
:1008800081E00E941D041FB9779BFECF8FB199278D
:100890001F9108958F929F92AF92BF92CF92DF9255
:1008A000EF92FF920F931F93CF93DF938FB7F8943C
:1008B0009927C0909D03D0909E0380901203909042
:1008C0001303C091C102D091C2022091470130911F
:1008D0004801EAE0AE2EB12CAC0EBD1E2A153B0538
:1008E00008F459018FBF7401EC0EFD1E86010C0F38
:1008F0001D1F14C0C114D10419F0F801808101C07A
:1009000080E00E943E048114910411F0F70180837D
:1009100021960894E11CF11C0F5F1F4FC501019740
:10092000C817D90738F381E00E9423049FB7F894D1
:10093000C114D10431F0CC0EDD1EF60180818FB9D7
:1009400001C01FB8D093C202C093C102892F99275A
:100950008FBF80E090E0DF91CF911F910F91FF90CA
:10096000EF90DF90CF90BF90AF909F908F900895C1
:100970002FB7F89433275093480140934701909341
:100980009E0380939D037093130360931203109250
:10099000C2021092C1022FBF452B29F08FB10E94D5
:1009A0004A049927089589E00E94980080E090E029
:1009B00008958FB7F8949927109221038FBF089557
:1009C0000F931F93182F8FB7F894282F3327022FD8
:1009D00080913101882399F491E090933101109333
:1009E000C8022FBF80913401882321F48AE10E943C
:1009F000980002C09093350180E090E023C0809180
:100A0000C802811711F42FBFF7CF812F0E94A902CE
:100A1000882319F085E090E014C0E12FE695E69573
:100A2000E695FF27E953FD4F177081E090E002C083
:100A3000880F991F1A95E2F72081282B208380E0E8
:100A400090E00FBF1F910F910895DF92EF92FF92F8
:100A50000F931F938FB7F894282F3327D22E91B777
:100A600082B746B7981711F041FF02C02FBF6AC086
:100A70008091C0028823E1F10E94F700E0901B03FF
:100A8000F0901C0300911D0310911E032091920110
:100A90003091930140919401509195016E197F0915
:100AA000800B910B621773078407950720F0109253
:100AB000C00271E01EC02E0D3F1D401F511F8091CE
:100AC0004B0190914C01A0914D01B0914E01281B1A
:100AD000390B4A0B5B0B273E31054105510540F4AC
:100AE000822F223010F070E005C070E082E002C07A
:100AF00070E086EE682F615000B601FCFDCF82B732
:100B0000681709F46F5F20914B0130914C014091BF
:100B10004D0150914E01DA01C9010196A11DB11D8F
:100B2000860F911DA11DB11D82179307A407B5075C
:100B300010F4622F609561BFDFBE772319F08CE05F
:100B40000E9498001F910F91FF90EF90DF90089501
:100B5000AFB7F894BB27E1E0E093C00260931B03BA
:100B600070931C0380931D0390931E0320939201A6
:100B7000309393014093940150939501AFBF0E942D
:100B800025050895EF92FF920F931F93CF93DF9364
:100B9000DC01FC01BE9660E070E0E280FF240027EB
:100BA0001127102F0F2DFE2CEE24ED012EA533273B
:100BB00044275527522F44273327222781819927FD
:100BC000AA27BB27DC0199278827282B392B4A2BFA
:100BD0005B2B83819927AA27BB27282B392B4A2BEC
:100BE0005B2BE22AF32A042B152B80E0E81680E029
:100BF000F80680E0080780E8180711F061E070E06F
:100C0000CB01DF91CF911F910F91FF90EF9008954D
:100C10008FB7F8946091C5027091C6022CB53DB5AE
:100C200006B602FE04C06F5F7F4F2CB53DB5992715
:100C30008FBF88279927CB01772766274427552719
:100C4000622B732B842B952B0895AF92BF92CF927A
:100C5000DF92EF92FF920F931F93CF93DF938C015C
:100C60000E940806F801BE96A280BB24CC24DD2495
:100C7000DC2CCB2CBA2CAA24E801EEA4FF240027FC
:100C800011271E2D0027FF24EE242181332744271E
:100C90005527A90133272227E22AF32A042B152BF3
:100CA0002381332744275527E22AF32A042B152BC7
:100CB000AE28BF28C02AD12A6A197B098C099D0950
:100CC0000E9434302DEC3CEC40EE51E40E94952F14
:100CD0000E94FD2F7B018C010E94F7006E197F0995
:100CE000800B910BDF91CF911F910F91FF90EF90AF
:100CF000DF90CF90BF90AF900895809161028430D3
:100D000018F080E090E00895E091CF01F091D001DB
:100D100040E020813327322F222781819927282BF9
:100D2000392B80910001909101012817390709F4AE
:100D300041E081E04827842F99270895CF92DF92E0
:100D4000EF92FF920F931F936C01FC01E080F18002
:100D5000028113818091960190919701A091980151
:100D6000B0919901A8019701281B390B4A0B5B0B25
:100D7000CA01B9010E9434302091D4013091D501CB
:100D80004091D6015091D7010E940E310E94FD2F53
:100D90002091060230910702409108025091090209
:100DA000260F371F481F591FE20EF31E041F151F81
:100DB000F601E082F182028313830E947D06992767
:100DC0001F910F91FF90EF90DF90CF90089580E8F2
:100DD0008093CE0110921A02109295031092900304
:100DE000109213020895CF93DF93FC0115A6DC0146
:100DF0009E96ED011B821A82198280E886A7DF91F8
:100E0000CF9108952F923F924F925F926F927F926F
:100E10008F929F92AF92BF92CF92DF92EF92FF920A
:100E20000F931F93CF93DF93CDB7DEB729970FB6FC
:100E3000F894DEBF0FBECDBF6FB76983F8942090E2
:100E4000240230902502409026025090270266240A
:100E500077248824EEE4AE2E73E8B72ECC24DD246C
:100E6000EE24FF2400E010E0222D332D442D552DDB
:100E7000662D772D882D90E00E94142E2A833B83C7
:100E80004C835D836E837F8388879987822E932E20
:100E9000A42EB52E2401350100E20E94122FA22EAD
:100EA000B32EC42ED52EA3019201569547953795A2
:100EB00027952A0D3B1D4C1D5D1D57FF05C05F7713
:100EC0002F5F3F4F4F4F5F4F2093240230932502F7
:100ED0004093260250932702E9818E2F99278FBFD6
:100EE000CA01B90129960FB6F894DEBF0FBECDBF77
:100EF000DF91CF911F910F91FF90EF90DF90CF90F6
:100F0000BF90AF909F908F907F906F905F904F9029
:100F10003F902F900895EF92FF920F931F930E949E
:100F200008067B018C01209163023091640240919C
:100F300065025091660280915D0290915E02A091DF
:100F40005F02B0916002820F931FA41FB51FE216CB
:100F5000F3060407150730F082179307A407B507B7
:100F600058F005C082179307A407B507E0F5E81607
:100F7000F9060A071B07B8F59C01AD012E193F09B8
:100F8000400B510B213060E8360760E0460760E017
:100F9000560768F180E090E8A0E0B0E0E80EF91EA6
:100FA0000A1F1B1FE0926302F09264020093650225
:100FB0001093660280E090E8AFEFBFEFE80EF91EF5
:100FC0000A1F1B1F205030484040504020935D02B4
:100FD00030935E0240935F025093600220E030E85D
:100FE00040E050E014C020E030E040E050E080936A
:100FF000630290936402A0936502B093660210921C
:101000005D0210925E0210925F0210926002A901CE
:10101000B7012CB53DB5C9018E199F0903968417F8
:10102000950720F0B9016D5F7F4F02C0640F751FF7
:101030006115710511F461E070E0615070407BBD95
:101040006ABD80E186BF87B7806187BF1F910F911E
:10105000FF90EF9008950F931F930FB7F894112707
:1010600060936302709364028093650290936602BA
:1010700020935D0230935E0240935F0250936002C2
:101080000E948B070FBF1F910F91089597B79F7D07
:1010900097BF90E296BF882319F08EB5806402C096
:1010A0008EB58F7B8EBD87B7806287BF80E090E072
:1010B0000895EBE6F2E01082399682E0E33BF80710
:1010C000D1F78FB7F8949927109261028FBF0895D6
:1010D0002F923F924F925F926F927F928F929F9248
:1010E000AF92BF92CF92DF92EF92FF920F931F9336
:1010F000CF93DF93CDB7DEB7C357D0400FB6F89488
:10110000DEBF0FBECDBF0091180310911903BCE0E4
:101110008B2E912C800E911EF8018485ADE0EA2E75
:10112000F12CE00EF11E2585A091CF01B091D001E8
:101130004C91FD0161819927D82ECC243327C22AF6
:10114000D32A5527542F44277727462B572BC416CD
:10115000D506C0F48091B802843038F48091000143
:10116000909101014817590769F0FD01C1828D2D49
:1011700099278C93F8018089E091CF01F091D001FB
:10118000848323C02C91FD014181F4018081F7010A
:1011900060813327322F22275527242B352B99277F
:1011A000982F88277727862B972B2817390709F040
:1011B0003AC6F4018481FD019481282F3327822FC0
:1011C000891B18160CF02FC62483E091CF01F091F3
:1011D000D001808121819927982F88273327822B5E
:1011E000932B20910001309101018217930710F495
:1011F0001092B8029401275F3F4F25963FAF2EAF64
:101200002597F40181859401265F3F4F2B963FAFD0
:101210002EAF2B97E284A401455F5F4F29965FAF05
:101220004EAF29972385D4011C962796BFAFAEAF4A
:101230002797A484332744275527542F432F322F31
:1012400022279927AA27BB27B82FAA2799278827BB
:10125000FF24002711278701FF24EE248E299F29D0
:10126000A02BB12BBB24CC24DD248A299B29AC29BB
:10127000BD29282B392B4A2B5B2B29833A834B839F
:101280005C83CE0101960E949E06F40135962D9650
:10129000FFAFEEAF2D97F401858194012A5F3F4F98
:1012A00063963FAF2EAF6397E680A401495F5F4F1F
:1012B00061965FAF4EAF61972781D40118962F9644
:1012C000BFAFAEAF2F97A084332744275527542FA5
:1012D000432F322F22279927AA27BB27B82FAA27C7
:1012E00099278827FF24002711278701FF24EE2450
:1012F0008E299F29A02BB12BBB24CC24DD248A2945
:101300009B29AC29BD29282B392B4A2B5B2BE98043
:10131000FA800B811C81E21AF30A040B150BE98297
:10132000FA820B831C830E947D068823E1F424EF5C
:1013300031E040E050E0E20EF31E041F151F39EECD
:10134000E31633E0F30630E0030730E0130758F00C
:1013500080911A018F5F80931A01843008F44FC185
:101360000E9459084CC11092340310921A01EBE606
:10137000F2E04FEF23964FAF23971E8A22243324A7
:10138000210160E070E06D8B2596AEADBFAD259775
:101390002C912B96AEADBFAD2B97EC902996AEADB0
:1013A000BFAD29978C912796AEADBFAD2797AC9076
:1013B0009927AA27BB276624782E892E9A2E3327B1
:1013C00044275527522F442733272227FF2400275D
:1013D00011278701FF24EE242E293F29402B512B72
:1013E000BB24CC24DD242A293B294C295D29622AEF
:1013F000732A842A952A81819281A381B481681AF3
:10140000790A8A0A9B0ABFEF6B16BFEF7B06BFEF14
:101410008B06BFE79B0610F0108203C080818823F3
:1014200021F423966FAF239705C0809134038F5F1B
:1014300080933403621473048404950420F02D898E
:101440002E8B130124016F5F7F4F39966830710531
:1014500009F099CF23963FAD239737FD06C08091C1
:1014600034038F5F809334033E8B4E89842F9927FA
:1014700087FD9095FC0123E0EE0FFF1F2A95E1F711
:10148000E80FF91FE559FD4F81E080832596AEAD49
:10149000BFAD25978C912B96AEADBFAD2B97EC9041
:1014A0002996AEADBFAD29972C912796AEADBFADB5
:1014B0002797AC90332744275527542F432F322F9B
:1014C00022279927AA27BB27B82FAA279927882739
:1014D000FF24002711278701FF24EE248E299F294E
:1014E000A02BB12BBB24CC24DD248A299B29AC2939
:1014F000BD29282B392B4A2B5B2B21833283438335
:1015000054832D96AEADBFAD2D978C916396AEAD45
:10151000BFAD63976C906196AEADBFAD6197EC9037
:101520002F96AEADBFAD2F973C912596AEADBFAD1A
:1015300025972C912B96AEADBFAD2B972C9029966D
:10154000AEADBFAD2997AC902796AEADBFAD279796
:10155000BC916496BFAF6497FF2400271127102F1A
:101560000F2DFE2CEE249927AA27BB27B82FAA27D8
:10157000992788277724882499244301772466248F
:1015800086299729A829B929432F55276627772720
:10159000842B952BA62BB72BE82AF92A0A2B1B2B79
:1015A000BB24CC24DD24DC2CCB2CBA2CAA2433275E
:1015B00044275527522F44273327222733244424F6
:1015C0005524210133242224222933294429552951
:1015D00064968FAD6497682E7724882499242629F1
:1015E000372948295929A22AB32AC42AD52AEA1810
:1015F000FB080C091D09E582F682078310872091FC
:10160000D4013091D5014091D6015091D7012DA33D
:101610003EA34FA358A720E030E0EBE6F2E007C07E
:101620002F5F3F4F39962830310509F4FCC32296CD
:101630002FAF22978081813099F7F90173E0EE0F87
:10164000FF1F7A95E1F7E20FF31FE559FD4F818106
:101650009281A381B48189A79AA7ABA7BCA7258152
:101660003681478150852DA73EA74FA758AB809163
:101670003403282F332744275527298F3A8F4B8F40
:101680005C8F89E022963FAD229738021001112429
:1016900044E752E0240E351E19AA1AAA1BAA1CAA56
:1016A0001DAA1EAA1FAA18AE19AE1AAE1BAE1CAEFA
:1016B0001DAE1EAE1FAE21961FAE21978824992421
:1016C000AA24BB24CC24DD24EE2475C1D1018C9145
:1016D000813009F06CC1F1014180528063807480D7
:1016E00029A53AA54BA55CA5421A530A640A750AB6
:1016F000C301B201298D3A8D4B8D5C8D0E94E5317D
:10170000DA01C901BB0F880B982FDC0168962CAF5A
:101710003DAF4EAF5FAF689769968FAF69976A9696
:101720008FAF6A976B968FAF6B976C968FAF6C97F6
:1017300009AD65968FAD6597080F81E099AD0917E2
:1017400008F080E01AAD6696AFAD66971A0FE1E03B
:10175000BAAD1B1708F0E0E0810F91E0811708F0A7
:1017600090E0E92B182F2BAD6796FFAD67972F0FF1
:10177000F1E08BAD281708F0F0E08E2F820F91E09A
:10178000821708F090E0F92B282F3CAD68969FADAA
:101790006897390FE1E0ACAD3A1708F0E0E08F2F21
:1017A000830F91E0831708F090E0E92B382F4DADBF
:1017B0006996BFAD69974B0FF1E08DAD481708F002
:1017C000F0E08E2F840F91E0841708F090E0F92B61
:1017D000482F5EAD6A969FAD6A97590FE1E0AEADB6
:1017E0005A1708F0E0E08F2F850F91E0851708F079
:1017F00090E0E92B582F6FAD6B96BFAD6B976B0FD9
:10180000F1E08FAD681708F0F0E09E2F960F81E0B1
:10181000961708F080E08F2B692F21967FAD2197D6
:101820006C969FAD6C97790F870F09AF1AAF2BAFEE
:101830003CAF4DAF5EAF6FAF21968FAF2197C30125
:10184000B201298D3A8D4B8D5C8D0E94C33129A93F
:101850003AA94BA95CA9260F371F481F591F29AB6E
:101860003AAB4BAB5CABF10145805680678070842E
:101870002DA53EA54FA558A9421A530A640A750A18
:10188000C301B201298D3A8D4B8D5C8D0E94E531EB
:10189000DA01C901BB0F880B982FDC01A0962CAF91
:1018A0003DAF4EAF5FAFA097A1968FAFA197A29625
:1018B0008FAFA297A3968FAFA397A4968FAFA4974D
:1018C0006D960FAD6D97080D81E0081508F080E06A
:1018D0006E961FAD6E97190DE1E0191508F0E0E066
:1018E000810F91E0811708F090E0E92B182F6F9697
:1018F0002FAD6F972A0DF1E02A1508F0F0E08E2F3A
:10190000820F91E0821708F090E0F92B282FA09623
:101910003FADA0973B0DE1E03B1508F0E0E08F2FD5
:10192000830F91E0831708F090E0E92B382FA19600
:101930004FADA1974C0DF1E04C1508F0F0E08E2F63
:10194000840F91E0841708F090E0F92B482FA296BD
:101950005FADA2975D0DE1E05D1508F0E0E08F2F2F
:10196000850F91E0851708F090E0E92BA3966FAD05
:10197000A3976E0D9E2F960F802E912EA22EB32E22
:10198000C42ED82EE92EC301B201298D3A8D4B8D7C
:101990005C8D0E94E5312DA93EA94FA958AD260FB7
:1019A000371F481F591F2DAB3EAB4FAB58AF49E017
:1019B00050E0240E351E22965FAD22975F5F22967F
:1019C0005FAF229758300CF481CE69A97AA98BA910
:1019D0009CA9298D3A8D4B8D5C8D0E94E5312D8718
:1019E0003E874F87588B89A59AA5ABA5BCA529AD85
:1019F0003AAD4BAD5CAD820F931FA41FB51F2D8573
:101A00003E854F855889280F391F4A1F5B1F2D8738
:101A10003E874F87588B6DA97EA98FA998AD298DD8
:101A20003A8D4B8D5C8D0E94E5318DA59EA5AFA5AD
:101A3000B8A9880D991DAA1DBB1D280F391F4A1F63
:101A40005B1F298B3A8B4B8B5C8B222433244424E1
:101A5000552466247724882499241D821E821F829F
:101A6000188619861A861B861C86ABE6B2E0B88FEC
:101A7000AF8BEF89F88D8081813009F076C181814B
:101A80009281A381B4812D853E854F855889821B23
:101A9000930BA40BB50B9C01AD01550F220B322FFC
:101AA000A9018D8F9E8FAF8FB8A329A32AA32BA343
:101AB0002CA3AD8CBE8CCF8CD8A0E22EF22E022FA0
:101AC000122F2A2D3B2D4C2D5D2D6E2D7E2D8E2D12
:101AD0009E2D0E94142EA5962FAFA597A6963FAFD8
:101AE000A697A7964FAFA797A8965FAFA897A99676
:101AF0006FAFA997AA967FAFAA97AB968FAFAB9718
:101B0000AC969FAFAC97022F020D81E0021508F052
:101B100080E0A6961FADA697130DE1E0131508F01F
:101B2000E0E0810F91E0811708F090E0E92B182F99
:101B3000A7962FADA797240DF1E0241508F0F0E04B
:101B40008E2F820F91E0821708F090E0F92B282F5A
:101B5000A8963FADA897350DE1E0351508F0E0E017
:101B60008F2F830F91E0831708F090E0E92B382F37
:101B7000A9964FADA997460DF1E0461508F0F0E0A3
:101B80008E2F840F91E0841708F090E0F92B482FF6
:101B9000AA965FADAA97570DE1E0571508F0E0E06F
:101BA0008F2F850F91E0851708F090E0E92B582FD3
:101BB000AB966FADAB97680DF1E0681508F0F0E0FB
:101BC0009E2F960F81E0961708F080E08F2BAC9641
:101BD0007FADAC97790D870F202E312E422E532EDC
:101BE000642E752E892E982EEF89F88DE580F6806B
:101BF0000781108529893A894B895C89E21AF30AA1
:101C0000040B150B57016801DD0CAA08BA2C6501FD
:101C1000A80197016A2DAE2CB32EC42ED52EE62E28
:101C2000F62E062F162F2D8D3E8D4F8D58A169A1B2
:101C30007AA18BA19CA10E94142EAD962FAFAD97D7
:101C4000AE963FAFAE97AF964FAFAF97E0965FAF10
:101C5000E097E1966FAFE197E2967FAFE297E39668
:101C60008FAFE397E4969FAFE4970D81020F81E079
:101C70009D81091708F080E01E81AE96AFADAE974A
:101C80001A0FE1E0BE811B1708F0E0E0810F91E040
:101C9000811708F090E0E92B182F2F81AF96FFAD48
:101CA000AF972F0FF1E08F81281708F0F0E08E2F0B
:101CB000820F91E0821708F090E0F92B282F3885E9
:101CC000E0969FADE097390FE1E0A8853A1708F05C
:101CD000E0E08F2F830F91E0831708F090E0E92B6D
:101CE000382F4985E196BFADE1974B0FF1E089852B
:101CF000481708F0F0E08E2F840F91E0841708F069
:101D000090E0F92B482F5A85E2969FADE297590F44
:101D1000E1E0AA855A1708F0E0E08F2F850F91E0E7
:101D2000851708F090E0E92B582F6B85E396BFAD3F
:101D3000E3976B0FF1E08B85681708F0F0E09E2FBA
:101D4000960F81E0961708F080E08F2B692F7C8535
:101D5000E4969FADE497790F870F0D831E832F8341
:101D6000388749875A876B878C87AF89B88D1996D2
:101D7000B88FAF8BA35BB24009F07BCE822D832955
:101D800084298529862987298829892901F12D8196
:101D90003E814F81588569857A858B859C850E9417
:101DA0002E307B018C01222D332D442D552D662D97
:101DB000772D882D992D0E942E309B01AC01C801F2
:101DC000B7010E94952F6DA37EA38FA398A72FB76D
:101DD000F89433278DA19EA1AFA1B8A58093D4011B
:101DE0009093D501A093D601B093D70189899A89A0
:101DF000AB89BC898093060290930702A0930802E6
:101E0000B09309028D859E85AF85B8898093960130
:101E100090939701A0939801B09399018091340316
:101E2000809361022FBF809123028E7F80932302D3
:101E3000CD58DF4F0FB6F894DEBF0FBECDBFDF9198
:101E4000CF911F910F91FF90EF90DF90CF90BF90B7
:101E5000AF909F908F907F906F905F904F903F904A
:101E60002F900895AF92BF92CF92DF92EF92FF92A0
:101E70000F931F93CF93DF93CDB7DEB728970FB69D
:101E8000F894DEBF0FBECDBF20E070E0E09100010E
:101E9000F091010132E14DE65CE46FE480910101D3
:101EA0009E2F28960FB6F894DEBF0FBECDBFDF91F0
:101EB000CF911F910F91FF90EF90DF90CF90BF9047
:101EC000AF900895AF92BF92CF92DF92EF92FF92C0
:101ED0000F931F93F82E5A016B010E94F700AB017C
:101EE000BC01EE24960185018F2D0E94D8001F9120
:101EF0000F91FF90EF90DF90CF90BF90AF9008953B
:101F00001F920F920FB60F9211248F9383B783BF46
:101F100000B600FCFDCF8F910F900FBE0F901F9069
:101F2000189578941F920F920FB60F9211240F906C
:101F30000FBE0F901F90189578941F920F920FB6B6
:101F40000F9211240F900FBE0F901F901895789448
:101F50001F920F920FB60F9211242F933F938F93DE
:101F60009F932FB7F89433278091C5029091C602B2
:101F700001969093C6028093C5022FBF9F918F91C7
:101F80003F912F910F900FBE0F901F9018951F92A9
:101F90000F920FB60F9211240F900FBE0F901F904B
:101FA00018951F920F920FB60F9211240F900FBE2B
:101FB0000F901F9018951F920F920FB60F92112439
:101FC0000F900FBE0F901F9018951F920F920FB693
:101FD0000F9211240F900FBE0F901F9018951F9213
:101FE0000F920FB60F9211240F900FBE0F901F90FB
:101FF00018951F920F920FB60F9211240F900FBEDB
:102000000F901F9018951F920F920FB60F921124E8
:102010000F900FBE0F901F9018951F920F920FB642
:102020000F9211242F933F934F935F936F937F935E
:102030008F939F93AF93BF93EF93FF9344B155B1A9
:1020400078948FB7F894992720910C02322F369507
:10205000317021708FBF2223D9F433988091B90257
:10206000813021F0823009F039C00AC0332351F0A9
:10207000509317034093160382E10E9498002EC0EC
:10208000332319F40E94BD0229C01092B90226C060
:102090008FB7F89499278FBF2FB7F894332786B15D
:1020A000582F5770482F4072987D942B952B807431
:1020B000977B982B90619F77892F992786B9887D88
:1020C000842B852B87738061992786B9887D842B23
:1020D000852B877B8069992786B92FBFFF91EF9168
:1020E000BF91AF919F918F917F916F915F914F9130
:1020F0003F912F910F900FBE0F901F9018951F9238
:102100000F920FB60F9211242F933F934F935F932B
:102110006F937F938F939F93AF93BF93EF93FF93AF
:1021200083B783BF00B600FCFDCF81B79927019626
:10213000AA27BB2720914B0130914C0140914D01C2
:1021400050914E01280F391F4A1F5B1F20934B01EE
:1021500030934C0140934D0150934E0178940E946E
:102160002505FF91EF91BF91AF919F918F917F9145
:102170006F915F914F913F912F910F900FBE0F90F4
:102180001F9018950F931F93CF93DF93182F8FB73E
:10219000F894C82FDD270C2F61E080E00E94EC034B
:1021A000882321F0CFBF85E090E024C08091050115
:1021B0008823A1F480912001823081F409C082E05B
:1021C00080932001109205010E942904B89AC098BA
:1021D0001093020180E00FBF99270CC0809120016D
:1021E000882369F38FB7F894992710921F038FBF44
:1021F00081E0F1CFDF91CF911F910F9108951F934F
:10220000CF93DF93982F8FB7F894182F80914001C8
:10221000833009F045C080911801891709F040C04A
:1022200080910502882309F049C03EC09095A923FA
:10223000A08360933F0125C06F5F7F4F62307105BF
:1022400011F460E070E0862F869586958695E82FDC
:10225000FF27EB5FFD4FA081462F55279A0127707E
:10226000307081E090E002C0880F991F2A95E2F754
:10227000982F8A2F8923D1F66C177D07E9F64FEF47
:1022800050E0409315038FEF8093180181E0809315
:10229000400185E20E9498001FBF80E090E014C0DA
:1022A0001FBF81E090E010C082E08093180110927F
:1022B000400181E08093410187E2ECCF80913F01B2
:1022C000C82FDD27BE01B8CFDF91CF911F910895B0
:1022D000EF92FF920F931F93CF93DF93982F8FB7B7
:1022E000F894E82E80912901833009F045C080914F
:1022F0000D01891709F040C08091C902882309F0B7
:1023000046C03EC0EF2DE695E695E695FF274F2D9A
:102310005527E753FD4F9A012770307081E090E018
:1023200002C0880F991F2A95E2F780952081282303
:102330002083C093280111C02196C730D10511F424
:10234000C0E0D0E0FC2E8C2F0E943D018823D1F606
:10235000C017D10789F74FEF50E040932E038FEF5E
:1023600080930D0181E08093290181E10E94980012
:10237000EFBE80E090E011C0EFBE81E090E00DC0C4
:1023800087E080930D01109229013798F1CF809159
:102390002801082F1127E801CFCFDF91CF911F919E
:1023A0000F91FF90EF9008951F93CF93DF93982F95
:1023B0008FB7F894182F80912B01833009F045C016
:1023C00080910E01891709F040C08091D3018823C4
:1023D00009F049C03EC09095A923A08360932A01CB
:1023E00025C06F5F7F4F6230710511F460E070E0CF
:1023F000862F869586958695E82FFF27ED52FE4F0E
:10240000A081462F55279A012770307081E090E017
:1024100002C0880F991F2A95E2F7982F8A2F8923E7
:10242000D1F66C177D07E9F64FEF50E040931D029F
:102430008FEF80930E0181E080932B0184E10E9455
:1024400098001FBF80E090E014C01FBF81E090E0C3
:1024500010C082E080930E0110922B0181E08093E6
:102460002C0186E1ECCF80912A01C82FDD27BE0127
:10247000B8CFDF91CF911F910895EF92FF920F9304
:102480001F93CF93DF93982F8FB7F894E82E809106
:102490002F01833009F045C080910F01891709F0A1
:1024A00040C080910D02882309F045C03EC0EF2D49
:1024B000E695E695E695FF274F2D5527E35FFD4FFF
:1024C0009A012770307081E090E002C0880F991F58
:1024D0002A95E2F78095208128232083C0932E013E
:1024E00011C02196C230D10511F4C0E0D0E0FC2E1D
:1024F0008C2F0E9401028823D1F6C017D10789F7DB
:102500004FEF50E0409303028FEF80930F0181E083
:1025100080932F0187E10E949800EFBE80E090E059
:1025200010C0EFBE81E090E00CC082E080930F010C
:1025300010922F01F2CF80912E01082F1127E80170
:10254000D0CFDF91CF911F910F91FF90EF90089521
:10255000982F80913801833009F047C08091150190
:10256000891709F042C08091130120E030E08F3FCD
:1025700011F421E030E0232BF9F48F3F19F42FEF11
:1025800030E00EC0282F3327F901EA56FC4F808136
:10259000809313018F3F11F4809314018FEF808398
:1025A000209345018FEF8093150181E080933801DE
:1025B00080E20E94980016C082E08093150110927C
:1025C000380180913901813069F40E94ED018091D8
:1025D00014038A76809314038093740090989198E2
:1025E0001092390180E090E0089581E090E0089534
:1025F000AF92BF92CF92DF92EF92FF920F931F9311
:10260000CF93DF935B016C01C0E0D0E0EAECF2E035
:10261000608561FFDDC12081318142815381E48089
:10262000F58006811781D601C501821B930BA40B8F
:10263000B50B8E159F05A007B10708F4C9C160FF4F
:1026400003C06D7F608708C02E0D3F1D401F511FC6
:102650002083318342835383C43009F497C0C5304B
:1026600050F4C23009F457C0C33008F056C0C1302E
:1026700009F0B4C10AC0C63009F442C1C63008F43A
:1026800006C1C73009F0AAC174C1809146018823F0
:10269000E1F5E091CF01F091D0018081218199276E
:1026A000982F88273327822B932B8F5F9F4FA1F47E
:1026B0008091B8028F5F8093B802853068F01482F1
:1026C0008091000190910101E091CF01F091D00142
:1026D0008183892F99278083E091CF01F091D001E8
:1026E000808121819927982F88273327822B932B4C
:1026F0008F5F9F4F09F472C18091230281FD6EC1EB
:1027000082608093230281E04DC18091DB028D7F46
:102710008093DB0263C1AA9861C19FB7F8942091AE
:102720002B01222319F421E030E00FC080910E012B
:10273000823019F020E030E008C040E050E0215045
:10274000223010F441E050E09A01892F99278FBF81
:10275000222309F443C18FB7F894C82FDD279C2F9B
:1027600080910E01823009F002C180912B018130ED
:1027700011F484E17EC0823009F0F9C080911D021D
:1027800080930E0183E080932B0120C180E00E94A2
:102790008F02882309F43AC09FB7F8942091310141
:1027A000222319F421E030E00FC080911001813024
:1027B00019F020E030E008C040E050E02150223025
:1027C00010F441E050E09A01892F99278FBF22230E
:1027D000E9F08FB7F894C82FDD279C2F8091100166
:1027E000813099F480913101813021F488E10E9497
:1027F000980009C0823049F48091C802809310018A
:1028000083E080933101CFBF01C09FBF81E00E9470
:102810008F02882309F4E2C09FB7F8942091330116
:10282000222319F421E030E00FC0809111018130A2
:1028300019F020E030E008C040E050E021502230A4
:1028400010F441E050E09A01892F99278FBF22238D
:1028500009F4C4C08FB7F894C82FDD279C2F80914E
:102860001101813009F083C080913301813021F45E
:1028700089E10E949800AAC0823009F078C0809156
:1028800091018093110183E0809333019FC09FB732
:10289000F89420913C01222319F421E030E00FC08C
:1028A00080911701813019F020E030E008C040E04D
:1028B00050E02150223010F441E050E09A01892F7D
:1028C00099278FBF222309F489C08FB7F894C82FA6
:1028D000DD279C2F80911701813009F048C080913D
:1028E0003C01813011F481E2C4CF823009F03FC055
:1028F000809124038093170183E080933C0166C09C
:102900009FB7F89420914001222319F421E030E090
:102910000FC080911801823019F020E030E008C02B
:1029200040E050E02150223010F441E050E09A01A4
:10293000892F99278FBF222309F450C08FB7F894AD
:10294000C82FDD279C2F80911801823081F480915F
:102950004001813011F485E28CCF823041F48091C6
:1029600015038093180183E0809340012FC09FBF1F
:1029700035C080E00E94E00480E00E94E0048FB750
:10298000F894C82FDD2780913C01882389F491E0D9
:1029900090933C0110922403CFBF80913D01882386
:1029A00021F482E20E94980019C090933E0116C063
:1029B00080912403882351F080E00E947B028823C9
:1029C00029F480919F03816080939F03CFBF06C04D
:1029D00021963996C830D10509F01ACE8DE00E94B3
:1029E0009800DF91CF911F910F91FF90EF90DF90B2
:1029F000CF90BF90AF9008950F931F93182F0FB7EC
:102A0000F89461E080E00E94EC03882371F5109354
:102A10000201809105018823A9F58091200182306F
:102A200089F588E00CC00E94290480912001882348
:102A300049F481E080932001109216028AE00E94FE
:102A400098002AC0809162028F3F31F5E091040125
:102A5000EE2311F11CC01092030104C0FF27EE59B0
:102A6000FD4F10821092040117C081E090E002C077
:102A7000880F991F1A95E2F720911F01282B2093A8
:102A80001F010AC0809120018823E1F6CCCF8091FC
:102A900003018F3F19F7DFCF802F99278FBF80E089
:102AA00090E01F910F9108951F9383E00E94C21040
:102AB0009927182F882319F083E00E94FC14812F96
:102AC00099271F910895CF92DF92EF92FF920F9373
:102AD0001F93CFB6F894DD240E940207DC01CB01DE
:102AE00066E470E00E949C314BE0E42EF12CE80E8D
:102AF000F91EF092A103E092A0030E9408060027AD
:102B00001127A80197010E942B08CFBE1F910F919A
:102B1000FF90EF90DF90CF900895FF920F931F9357
:102B2000CF93DF93F82E8B018FB7F894C82FDD2752
:102B300060E080E00E940604882321F0CFBF80E09F
:102B400090E00CC0CFBF8F2D0E943E04812F9927AB
:102B50000E943E04802F0E943E049927DF91CF916E
:102B60001F910F91FF9008951F931FB7F8948091C4
:102B70001202882319F460E070E009C060E08091DF
:102B80009C03882309F461E081E06827772780911E
:102B90001E02882319F480E090E00AC090E0809142
:102BA0002503882309F491E081E09827892F99274C
:102BB000762F6627770F770F770FE4E0880F991F3E
:102BC000EA95E1F7826E9262682B792B81E10E948F
:102BD0008D15812F99278FBF1F9108958FB7F89476
:102BE000992760912F038FBF85E0689FB001112462
:102BF000625D7E4F706488E10E948D150895EF92AA
:102C0000FF921F93CF93DF93E0901F02F09020027A
:102C1000F70182A59927182F882309F41FE1C0988E
:102C200080910B02811749F0612F77276F717070C7
:102C3000606E706885E10E948D1510930B02F7019C
:102C400010818FB7F894C82FDD2760E080E00E94E4
:102C50000604882311F0CFBF12C0CFBF8EE390E0EF
:102C60009093B4028093B3028EE30E943E0411500D
:102C7000412F552760E070E0C7010E94B804DF9142
:102C8000CF911F91FF90EF9008950F931F93CF93D3
:102C9000DF93EC010FB7F89411270E94A803FC0101
:102CA0008FE380830FBF10929A031092990361E023
:102CB00082E00E94EC03882319F085E090E072C066
:102CC000809133038F5F8093330381508B838FB761
:102CD000F894082F112762E081E00E9406048823FF
:102CE00029F40FBF0E94D90481E05BC08FB7F8942C
:102CF000992724E0209320038FBFD093BD02C09377
:102D0000BC020FBFFE013196818129819927982F3E
:102D100088273327822B932B80729C7C8983892F71
:102D2000992781832981982F882733272164822B33
:102D3000932B8983892F992781831CA618A619A60E
:102D400019AA18AA1FA680E88EA761E06093230342
:102D50004091BC025091BD028FB7F894282F3327C1
:102D600080912101909122018830910511F0019705
:102D700011F02FBF15C082E090E090932201809364
:102D800021016093A4035093200240931F021092EC
:102D900049012FBF0E945415882311F40E94FF158A
:102DA00080E09927DF91CF911F910F910895CF93E4
:102DB000DF93DA01422F2D3118F082E090E05EC0FF
:102DC000ED018B876E83872F99278F832FB7F89418
:102DD000332780911B0290911C022FBFFD01848339
:102DE000892F992785832FB7F8943327809106017F
:102DF000909107012FBF8887892F9927898731965E
:102E0000818129819927982F882733272064386862
:102E1000822B932B8983892F99278183435F4C933E
:102E20004D5080910901882359F010920901642FB7
:102E3000CD010E9445169927282F8823A9F417C091
:102E4000842F99279093BB028093BA02B0932601F6
:102E5000A09325018EE00E949800809109018823AB
:102E600049F489E090E00AC08FEF80930901822F36
:102E7000992704C01092280280E090E0DF91CF9162
:102E80000895AF92BF92CF92DF92EF92FF920F938D
:102E90001F93CF93DF93CDB7DEB724970FB6F89487
:102EA000DEBF0FBECDBF0E94F7005B016C016983DE
:102EB0007A838B839C83CE0101960E949E06E091CB
:102EC000CF01F091D001808121814091000150918A
:102ED00001019927982F88273327822B932B84175A
:102EE000950791F58091960190919701A091980195
:102EF000B0919901A6019501281B390B4A0B5B0B78
:102F0000DA01C90180509040A040B04274F12FB75F
:102F1000F8943327A0929601B0929701C09298013D
:102F2000D092990189819A81AB81BC818A199B09D0
:102F3000AC09BD098093060290930702A093080292
:102F4000B09309022FBF11C08091B802853068F09C
:102F50001092B8024183852F99278083E091CF0199
:102F6000F091D00184818F5F848329813A814B81E4
:102F70005C81E091CF01F091D0012087BB27A52F84
:102F8000942F832F8783CA01AA27BB278683252FE7
:102F90003327442755272583809161028330C8F465
:102FA000E091CF01F091D001808121819927982F64
:102FB00088273327822B932B209100013091010128
:102FC0008217930731F08091B8028F5F8093B80227
:102FD00067C00E94F7007B018C010E940806A601D1
:102FE00095012E193F09400B510B15E0220F331F9D
:102FF000441F551F1A95D1F7260F371F481F591F19
:103000008EE38093AF012093B301BB27A52F942FAC
:10301000832F8093B201CA01AA27BB278093B101F5
:10302000252F3327442755272093B0014AE951E043
:103030008FEF8093A0018093A1018DE38093A50180
:103040008091C3029091C402892B19F025E030E0F1
:1030500022C05093C4024093C3028BE180939A0133
:1030600080910C01882319F420E030E014C0109204
:103070000C012EE06FEF7FEF8DE30E94D7169927AA
:10308000282F882339F081E080930C011092C4022C
:103090001092C302332781E08093C701232B29F0CC
:1030A000809123028D7F8093230224960FB6F8949B
:1030B000DEBF0FBECDBFDF91CF911F910F91FF906B
:1030C000EF90DF90CF90BF90AF9008950F931F9334
:1030D000CF93DF93182FEB01042FE82FFF27EE0F7C
:1030E000FF1FED53FD4F1182108210920C01E091F1
:1030F000C302F091C402309721F08091980380FFC1
:103100000EC081E080930C0103C080E10E94980012
:103110001123B9F4602FCE010E94790312C02081DF
:103120002D50332767817727762F66278681992749
:10313000682B792BAF0183850E94D716882341F332
:10314000E4CFDF91CF911F910F9108959B01809162
:103150000C01882349F46091C3027091C402621784
:10316000730711F40E94661808951F93CF93DF939D
:10317000C0912501D09126016091BA02CE010E9432
:103180004516482F5527442381F08FEF809309017E
:103190008B859927182F60912501709126010E9437
:1031A000A618193811F410922701DF91CF911F91C1
:1031B0000895CF92DF92EF92FF920F931F93CF93D8
:1031C000DF938C01F62E6A01E22E8FB7F894C82F98
:1031D000DD2760E080E00E940604882321F0CFBF55
:1031E00080E090E01EC0CFBF0F0D111D802F8068C2
:1031F0000E943E04F82E16950795802F807C0E9431
:103200003E040E2D0AC0EE2DFF27E01BF109EC0D48
:10321000FD1D80810E943E0401500023A1F78F2DE7
:103220009927DF91CF911F910F91FF90EF90DF9041
:10323000CF900895CF93DF93CDB7DEB72C970FB61D
:10324000F894DEBF0FBECDBF8FB7F894282FAE0124
:103250004F5F5F4FDA01E6E2F3E088E001900D9204
:103260008150E1F780911B0290911C028987892F80
:1032700099278A8780916702909168028B87892FAE
:1032800099278C872FBF2CE060E080E691E00E94B8
:10329000D9182C960FB6F894DEBF0FBECDBFDF91C4
:1032A000CF9108951F93CF93DF93182F8FB7F89482
:1032B000C82FDD2760E080E00E940604882321F00B
:1032C000CFBF80E090E005C0CFBF812F0E943E04B9
:1032D0009927DF91CF911F91089583E00E945219A1
:1032E0009927089589E00E94521999270895EF922D
:1032F000FF920F931F93CF93DF93182F7B01042F1F
:103300008FB7F894C82FDD2760E080E00E940604A4
:10331000882321F0CFBF80E090E014C0CFBF1064BD
:10332000812F99279093B4028093B3020E943E04A8
:10333000182F402F5527B70180E090E00E94B80475
:10334000812F9927DF91CF911F910F91FF90EF90DF
:103350000895C098609143017091440141E08FE36A
:103360000E947719089582E090E090930202809382
:10337000010281E080931A0220E030E08091020196
:10338000843011F421E030E0232B29F484E00E9402
:10339000C210882319F40E94A919089584E00E949C
:1033A000FC1408951F920F920FB60F9211242F93C1
:1033B0003F934F935F936F937F938F939F93AF93BD
:1033C000BF93EF93FF9380910102909102020197C6
:1033D00049F482E090E090930202809301020E94FF
:1033E000B31905C0809113028F5F80931302FF9180
:1033F000EF91BF91AF919F918F917F916F915F916D
:103400004F913F912F910F900FBE0F901F901895E5
:103410001F9380911F01882309F04BC01091020176
:103420001F3F09F046C060E00E940604882309F4AB
:1034300040C081E0809330038091D8018823E1F17E
:103440001092300385E090E045C0923069F5C09A53
:103450008091030120E030E08F3F11F421E030E063
:10346000232BE9F4109305018F3F19F42FEF30E07F
:103470000DC0282F3327F901EE59FD4F808180932D
:1034800003018F3F11F4109304011083209316025F
:1034900081E0809320018AE00E94980005C010938B
:1034A00005011092200111C080912001882369F04C
:1034B0000FC081E090E00EC0809105019091200145
:1034C000882319F2923021F0EFCF80E00E941D0492
:1034D00080E090E01F9108951F93CF93DF939FB7F3
:1034E000F894C92FDD271C2F90910201981721F025
:1034F000CFBF81E090E03AC08FEF8093020130911E
:103500001F013323F1F48FB7F894992710921F030A
:103510008FBF0E94081ACFBF11C02093020181E023
:1035200090E002C0880F991F4A95E2F780953823F2
:1035300030931F0188E00E9498001FBF80E090E058
:1035400015C080E065E0E32FFF270E949031292F0E
:10355000492F5527CF01042E02C0959587950A94CF
:10356000E2F780FDDACF822F8F5FEFCFDF91CF912F
:103570001F910895EF92FF920F931F93CF93DF93C4
:103580000FB7F894112781E00E94460871E0E72EFA
:10359000F12CF0922201E09221011092230110926D
:1035A000D80110920B020FBF0FB7F89411270E9499
:1035B000E706F0920202E092010210921A0289B725
:1035C0008F7B89BF80E488BF8AB780628ABF8AB751
:1035D0008F7E8ABF89B7806489BF0FBF8FB7F89489
:1035E000C82FDD2780911C0190911D01049719F4CB
:1035F00083E00E945219CFBF0FB7F8941127C09AE9
:1036000080E00E946C1A0FBF8FB7F894992722E0D0
:10361000209320038FBFDF91CF911F910F91FF90D7
:10362000EF90089583E00E946C1A992708951F93E4
:10363000CF93DF938FB7F894C82FDD271C2F80918D
:10364000010290910202892B29F484E00E946C1AF5
:10365000CFBF1EC010921A0280911302882311F06E
:10366000B79904C00E9908C0882319F0815080933F
:1036700013020E94B3190BC081E090E09093020204
:10368000809301021092130284E00E946C1A1FBF03
:10369000DF91CF911F9108950E94E706C09AC098CC
:1036A00088E00E94521988E00E945219C09A84E072
:1036B0000E946C1A0E94171B08951F93182F81E017
:1036C00090E090932201809321011092D8010E94F2
:1036D000081A8FB7F894992710931B018FBF84E0C5
:1036E0000E9498001F910895FF920F931F93CF930C
:1036F000DF938FB7F8949927F0901B018FBF63E099
:1037000081E00E940604882359F10FB7F89411272D
:10371000109222011092210187B78F7E87BF87B751
:103720008F7D87BF83E00E946C1AC09A0FBF0FB7CE
:10373000F894112710920202109201020E94E706EB
:10374000C09A89B78F7B89BF0FBF10921D0110925D
:103750001C01DE98DD98DE9A83E00E94980007C085
:103760008FB7F894992722E0209320038FBFC09150
:10377000BC02D091BD020E94D9048091990390911E
:103780009A03892B71F48FEF809309018B85992718
:10379000182F4F2DBE010E94A618193811F410924F
:1037A0002701DF91CF911F910F91FF900895EF9224
:1037B000FF920F931F93F62EE22E9FB7F894292FB6
:1037C000332790911601981711F02FBF9CC02FBF7F
:1037D0008FB7F894282F332780913901813041F534
:1037E00082E0809339012FBF8FB7F89499275093C7
:1037F0002202409321021093150200931402E092DA
:103800004A016093A5031092360310923A018FBFCC
:103810000E94ED018FB7F894182F90911403916CCA
:103820009F7E909314036F2D772760FD0BC011C00E
:10383000882321F42FBF84E090E06FC02FBF85E084
:1038400090E06BC090629093140384E08093390100
:103850005DC0EE2009F449C083E0809339012091D6
:10386000360380914A01281778F4E0911402F09110
:103870001502E20FF11D8081809373002F5F20936A
:1038800036039093740046C0292F2E7F2093140393
:103890008091A50381FF07C08D7F8093A5032061E0
:1038A0002093140303C09E77909314038091140314
:1038B0008093740081E08093390180911601882300
:1038C00019F0813039F506C00E94F60180E00E94AF
:1038D000A81220C00E94F60181E00E94A812109256
:1038E000110284E20E94980015C061FF08C085E0C3
:1038F000809339019F7B90619093140307C081E00E
:10390000809339011FBF81E090E007C080911403CC
:10391000809374001FBF80E090E01F910F91FF9093
:10392000EF9008951F93182F0E94ED0180911403CA
:103930008A7F80931403809374000E94ED0180912C
:1039400014038460809314038093740081E0809357
:10395000390180913A018823B9F4809116018823B6
:1039600019F0813089F406C00E94F60180E00E94BF
:10397000A8120AC00E94F60181E00E94A8121093CA
:10398000110284E20E9498001F910895EF920F9314
:103990001F93A49AAC9A0E94F700AB01BC01E1E02E
:1039A000EE2E01E110E020E030E083E00E94D8003C
:1039B00080E090E01F910F91EF900895EF920F93A8
:1039C0001F9389B78F7789BFA39AAB9AA69AAE98AF
:1039D000AE9A8091120110920E0280930F028FB75F
:1039E000F894282F3327922F80913801882309F0EB
:1039F00045C0A1E0EA2EE0923801109245012FBFA8
:103A00008FB7F894082F1127809139018823C9F4C2
:103A1000909A919A889889981092710081E4809385
:103A2000700010927200109274000E94ED0180915B
:103A3000140384608E7F8093140380937400E0925B
:103A400039010FBF8FB7F894082F1127902F80915D
:103A50001501823059F580913801813021F480E2DE
:103A60000E94980009C0823009F580914501809339
:103A7000150183E0809338010FBF1FC0809145017D
:103A8000882311F42FBF19C0809196038F3F71F4E2
:103A9000E0911401EE2351F00BC01092130104C009
:103AA000FF27EA56FC4F1082109214019FBF05C0F9
:103AB000809113018F3FA1F7F0CF0E94F700AB0177
:103AC000BC01F1E0EF2E00EB14E020E030E085E0F7
:103AD0000E94D80080E090E01F910F91EF90089530
:103AE000EF920F931F93A59AAD9A0E94F700AB0136
:103AF000BC01B1E0EB2E04E610E020E030E086E00F
:103B00000E94D80080E090E01F910F91EF900895FF
:103B10001F920F920FB60F9211242F933F934F9342
:103B20005F936F937F938F939F93AF93BF93EF9325
:103B3000FF930E94ED0180913901843009F4D9C0CE
:103B4000863021F0833009F001C141C090917100AD
:103B5000987F80913A01813041F49034B1F583E04F
:103B6000809339012091360347C0983171F583E085
:103B7000809339019091360380914A01209114037A
:103B8000981708F475C0922F9E7F9093140380912C
:103B9000A50381FF07C08D7F8093A503906190935B
:103BA000140303C02E772093140380911403809391
:103BB000740081E08093390180911601882309F413
:103BC00087C0813009F0C2C089C084E0A7C080915D
:103BD0003A0190913603813009F044C0E09114021B
:103BE000F0911502E90FF11D8091730080832091FF
:103BF00036032F5F2093360380914A012817A0F4E3
:103C00003327992701972817390749F48091A5038D
:103C100082FD05C0809114038F7B809314038091F3
:103C200014038093740092C090911403292F2E7F67
:103C3000209314038091A50381FF09C08D7F809399
:103C4000A5032061209314038091710003C09E7727
:103C500090931403809114038093740081E0809307
:103C6000390174C080914A0120911403981778F4A7
:103C7000E0911402F0911502E90FF11D808180930B
:103C800073009F5F90933603209374005FC0922F60
:103C90009E7F909314038091A50381FF07C08D7FC1
:103CA0008093A50390619093140303C02E77209313
:103CB0001403809114038093740081E08093390190
:103CC00080911601882321F0813009F03FC006C0A1
:103CD0000E94F60180E00E94A81238C00E94F601FE
:103CE00081E00E94A8121092110284E20E949800C2
:103CF0002DC08091A5038E7F8093A503909114031E
:103D00009F7D9093140380917100887F883049F0E3
:103D100080917100887F803121F081E00E94921CA7
:103D200015C0392F30643093140390912102990FFC
:103D300020E080913A01813009F421E0922B9093A8
:103D4000730086E08093390130937400FF91EF9106
:103D5000BF91AF919F918F917F916F915F914F91A3
:103D60003F912F910F900FBE0F901F90189561E01B
:103D700081E00E94EC038823E9F48FB7F894282FA0
:103D8000332780911C0190911D01892B11F02FBFC9
:103D900020C081E090E090931D0180931C012FBF13
:103DA000DD9A0E94080624E130E040E050E00E94E5
:103DB0002B080FC062E081E00E940604882319F0FE
:103DC00089E090E0089561E081E00E940604882384
:103DD00019F080E090E0089585E090E008951F9349
:103DE000CF93DF938FB7F894C82FDD271C2F8091D6
:103DF0002101909122010897C9F489E00E9452198B
:103E000083E00E946C1AC09A81E090E090932201B6
:103E1000809321018FB7F894992723E020931B0109
:103E20008FBF84E00E949800CFBF30C0C0988091BF
:103E3000A403882311F085E001C084E00E94521998
:103E400083FD09C080E00E94521983FF04C085E011
:103E500090E020E003C083E090E021E09093220115
:103E600080932101C09A1FBF222341F01092490183
:103E700083E00E946C1A0E94631508C00E94080625
:103E800020E431E040E050E00E942B08DF91CF9128
:103E90001F91089578941F920F920FB60F921124DC
:103EA0001F932F933F934F935F936F937F938F93C2
:103EB0009F93AF93BF93EF93FF9387B78F7E87BF97
:103EC00078941FB7F89480915D0290915E02A09162
:103ED0005F02B09160020097A105B10509F051C0E1
:103EE00080912101909122018530910561F1863008
:103EF000910530F48330910549F0049781F51AC09B
:103F000087309105F1F0089751F514C0869B0FC0DA
:103F100084E090E090932201809321010E940806A2
:103F200027E030E040E050E00E942B0818C00E94DB
:103F3000631515C00E945415882389F40E94EF1E52
:103F40000EC080E00AC089E00E94521981E00E9400
:103F5000460883E00E946C1A87E00E945D1B8091F6
:103F60001C0190911D01019771F482E090E0909303
:103F70001D0180931C01DE98DE9A80E00E94FC14F3
:103F800002C00E948B07812F99278FBFFF91EF916D
:103F9000BF91AF919F918F917F916F915F914F9161
:103FA0003F912F911F910F900FBE0F901F9018956A
:103FB000EF92FF920F931F93CF93DF938B0180912A
:103FC000B3029091B40286FF40C18F7B8F3309F01A
:103FD0008EC1C0914301D091440158815093040295
:103FE00080910102909102028530910509F443C04D
:103FF0008630910509F48AC0029709F01FC185E057
:1040000090E090930202809301024091CE01852FAF
:1040100099270196242F3327281739074CF1B79990
:1040200006C00E9904C0451B41504093CE014091FB
:1040300004024A32E8F44423A1F0BE016F5F7F4FCF
:10404000483018F047E050E007C086E090E09093D9
:10405000020280930102552780E090E00E94B8049C
:1040600046C110921A02C09A84E00E946C1AE3C002
:104070000E944C1B3CC186E090E09093020280932A
:10408000010280911E02882309F439C08091250322
:104090008823A9F5898185FF32C08F814E812FB792
:1040A000F894332760916702709168022FBF9927B7
:1040B000982F88275527842B952B8617970759F01B
:1040C0008F812E819927982F88273327822B932B36
:1040D0008F5F9F4FA1F489818770813081F4C09AEE
:1040E000C0988AE00E945219C09AC0984091040278
:1040F00047502896BE018FE30E947719F8C040917F
:104100000402475055272896BE01A6CFC09A809139
:104110001302882339F484E00E946C1A8091130200
:10412000882311F0B7990AC00E9B08C090919003A4
:10413000992321F0809104028B3038F4809143015F
:10414000909144010E94F3063DC0913001F5E09149
:104150009503FF27EE0FFF1FEE0FFF1FE45CFC4FE0
:104160002081318142815381E0914301F0914401EA
:1041700021ABBB27A52F942F832F80ABCA01AA2781
:10418000BB2787A7252F33274427552726A78091AC
:1041900095039927019668E070E00E94B031809302
:1041A000950380919003815080939003882351F070
:1041B00080914301909144010E94F306109295036F
:1041C0001092900380910402FE01E80FF11D80819E
:1041D00087FF31C0012B79F169816770E09143015C
:1041E000F0914401623019F5A0911F02B0912002B4
:1041F000109709F180912101909122010797D9F43C
:10420000ED019B8183819817B1F487B78F7E87BFBB
:10421000908181E08CA7E90FF11D8291319688A7EA
:1042200080818F7789A780E00E945D1B04C0613088
:1042300011F48BE02AC00E94171B59C010921A0279
:10424000C09A84E00E946C1A52C08E3309F04FC0AD
:10425000C09A80912101909122010897C9F4C098D9
:1042600089E00E945219C09A83E00E946C1A81E092
:1042700090E090932201809321018FB7F8949927C1
:1042800023E020931B018FBF84E00E9498002FC081
:104290008091A403882349F484E090E09093220164
:1042A000809321010E94EF1E22C083E00E946C1ABD
:1042B00083E090E090932201809321010E94020705
:1042C000DC01CB0166E371E00E949C311BE0E12E32
:1042D000F12CE80EF91EF0929001E0928F010E94FD
:1042E000080600271127A80197010E942B08DF91DB
:1042F000CF911F910F91FF90EF9008951F920F9211
:104300000FB60F9211242F933F934F935F936F93A8
:104310007F938F939F93AF93BF93EF93FF932FB1AF
:10432000E0911203F0911303309739F08091C102AC
:104330009091C202E80FF91F20838091C1029091F1
:10434000C20201969093C2028093C10280E00E9453
:10435000230440914701509148018091C1029091FE
:10436000C2028417950718F40E944A041CC0609189
:1043700012037091130380919D0390919E031092FC
:1043800013031092120310929E0310929D03109239
:104390004801109247011092C2021092C1022FB13F
:1043A00020E00E94D81FFF91EF91BF91AF919F91A4
:1043B0008F917F916F915F914F913F912F910F90CE
:1043C0000FBE0F901F9018952F923F924F925F92C1
:1043D0006F927F928F929F92AF92BF92CF92DF9215
:1043E000EF92FF920F931F93CF93DF93CDB7DEB77A
:1043F000E0970FB6F894DEBF0FBECDBFE82FFF27C2
:10440000E832F10510F00C94142AEA5BFF4FEE0F2E
:10441000FF1F0590F491E02D099480919803882363
:1044200011F40C94142A90E011E016C50E9468085B
:104430000C94142A0E9441170C94142A0E94BA1A50
:104440000C94142A8FB7F89499271092200324C053
:104450000E94741B0C94142A8FB7F894282F3327CA
:10446000122F8091A203882311F581E08093A2038B
:1044700080911C0190911D01049721F481E00E941C
:10448000FC1402C00E94BF001FBF0C94142A8FB7F7
:10449000F89499271092A2038FBF0C94142A8FB717
:1044A000F894282F332780911E01882319F02FBFFD
:1044B0000C94142A2FBF80B3992746E096958795D0
:1044C0004A95E1F7182F11709091690280916A0264
:1044D0008917D9F01917C9F484E090E090931D0171
:1044E00080931C018FB7F894992721E020931E0137
:1044F0008FBF60E070E08DE10E948D150E941A1957
:10450000C09AC09882E00E94980010936A0287E0E7
:104510007BC68FB7F8949927209102018FBF223074
:1045200009F467C0233038F4222369F0213011F0F8
:104530000C94142A49C0233009F475C0243011F0BA
:104540000C94142A9DC0C0988FB7F894082F112797
:1045500080911C0190911D010297A1F583E090E0EC
:1045600090931D0180931C0168E170E08DE10E9431
:104570008D1581E08093690210921E0180B3992706
:1045800036E0969587953A95E1F781709070809323
:104590006A0287E00E94980081E00E9452196FE74A
:1045A00072E08CE10E948D150E94EE150E94B415F8
:1045B00066E57AE287E10E948D156FEF70E885E18C
:1045C0000E948D150FBF30C7C09886E00E94521917
:1045D0000E94EE150E94B4150E941A19C09AC09844
:1045E0000E946D19C09A81E00E946C1A0E94BF005F
:1045F0001BC7C0988FB7F894082F11270E94170483
:10460000882311F00FBF0AC00FBF83E50E943E044C
:1046100080E00E943E0480E00E943E04C09A82E056
:104620000E946C1A01C78FB7F89499272091210135
:104630008FBF243039F0283041F02230F1F40E944D
:10464000FF15F2C60E94EF1EEFC6C0980E947219B5
:10465000C09A0E94121B2FB7F894332781E090E094
:1046600090932201809321012FBF63E080911F026C
:10467000909120020E94C400D7C60E94121BD4C68B
:104680000E94A919D1C60FB7F8941127409147018C
:1046900050914801609112037091130380919D0322
:1046A00090919E03109213031092120310929E0396
:1046B00010929D0310924801109247011092C2027D
:1046C0001092C10220E00E94D81F7CCF2FB7F8942F
:1046D0003327809116028093050182E080932001A8
:1046E0002FBF80910501882309F09EC6B89AC09813
:1046F0000E94CE0099C6A0914301B09144011C9143
:104700009D01210F311DF9018081881F8827881F95
:10471000FD0183A7F90180818F77FD0181A72150D9
:104720003040F9018081FD0180A7A0914301B09143
:104730004401FD0132818FB7F8949927209112022C
:104740008FBF222309F490C0832F992796958795D0
:1047500096958795837090708230910541F5878199
:1047600046812FB7F89433276091670270916802F1
:104770002FBF9927982F88275527842B952B86178D
:10478000970719F481E090E06CC0FD0187812681D4
:1047900040E050E09927982F88273327822B932BCE
:1047A0008F5F9F4F11F441E050E0CA015AC0039758
:1047B00009F0ABC29E012B5F3F4F46E253E088E019
:1047C000FA010190AF01F90101929F018150C1F7F7
:1047D0009E012B5D3F4FAE014B5F5F4F88E0FA01BA
:1047E0000190AF01F90101929F018150C1F79E0133
:1047F000235F3F4FAE014B5D5F4F88E0FA010190B0
:10480000AF01F90101929F018150C1F79E012B5E1A
:104810003F4FAE01435F5F4F88E0FA010190AF0167
:10482000F90101929F018150C1F79E01235E3F4F24
:10483000AE014B5E5F4F88E0FA010190AF01F901D4
:1048400001929F018150C1F748E050E0BE01635ED4
:104850007F4FCD0106960E943732892B09F055C251
:1048600003C0882309F451C21D3008F44EC22091C0
:1048700043013091440138AB2FA7F9012281822FE7
:104880009927F6E096958795FA95E1F7039719F43D
:1048900068E070E002C062E070E0822F9927969590
:1048A00087959695879583709070039719F488E0A3
:1048B00090E002C082E090E02FA538A92A5F3F4F28
:1048C00038AB2FA740E050E020E030E0EFA5F8A99A
:1048D000E80FF91F8FA598A9069798AB8FA705C079
:1048E0008191480F511D2F5F3F4F26173707C4F3A3
:1048F000EFA5F8A963818FEF80939B038FB7F8949E
:10490000782F20E030E0E3E8F1E0808191818417A6
:10491000950731F48281861709F440C120939B03E7
:104920002F5F3F4F33962430310579F77FBF909149
:104930009B033FB7F8949F3F21F080912401891792
:1049400099F420912401822F9927FC01EE0FFF1F7B
:10495000E80FF91FED57FE4F5183408362832F5FAD
:104960002370209324010CC0892F9927FC01EE0F9E
:10497000FF1FE80FF91FED57FE4F518340836283FD
:10498000832F99278FBF0FB7F89411278FA598A968
:104990000E94A803FC0190810FBFEFA5F8A983A591
:1049A000882309F4ACC19F3309F0A9C187814681EE
:1049B0002FB7F894332760910601709107012FBF3C
:1049C0009927982F88275527842B952B861797078B
:1049D00061F0878126819927982F88273327822B9A
:1049E000932B8F5F9F4F09F08AC1EFA5F8A98385AC
:1049F0009927863021F08D3309F081C1D1C02FB7BE
:104A0000F89433278BB394E089278BBB2FBF809119
:104A10002701882309F073C18FA598A90E94C205B8
:104A2000882309F46CC18FA598A90E942506698383
:104A30007A838B839C832091000130910101209324
:104A40005C01232F332720935B01EFA5F8A9248570
:104A500045853327322F22275527242B352B2093AA
:104A60005E01232F332720935D0160936201272F7E
:104A7000382F492F5527209361019C014427552742
:104A800020936001692F77278827992760935F011A
:104A9000CE0101960E949E0680936B0189819A81C6
:104AA000AB81BC8180936601292F3A2F4B2F55276C
:104AB000209365019D0144275527209364018B2F86
:104AC0009927AA27BB27809363016091D401709135
:104AD000D5018091D6019091D7010E94023020E447
:104AE00032E44FE050E00E94713160936A01272F59
:104AF000382F492F5527209369019C0144275527BA
:104B000020936801692F7727882799276093670189
:104B1000E091CF01F091D001808121819927982FD8
:104B200088273327822B932B80936D01892F992718
:104B300080936C01848180936E01809161028093E7
:104B40006F018091D1019091D20180937101892FE1
:104B50009927809370018091BE029091BF0280934B
:104B60007301892F9927809372018091310390916D
:104B7000320380937501892F9927809374012BE16B
:104B80004FE451E06FEF7FEF89E80E94D71688234A
:104B900009F0B5C081E080932701B1C07FBFAFC0ED
:104BA0008FA498A82CE030E0820E931EEFA5F8A900
:104BB000808182518401080F111DF80180818E339C
:104BC00009F09DC08091230280FD99C08FA598A90E
:104BD0000E94C205882309F492C0F8018181E28015
:104BE0002381A480332744275527542F432F322F66
:104BF00022279927AA27BB27B82FAA2799278827D2
:104C0000FF24002711278701FF24EE248E299F29E6
:104C1000A02BB12BBB24CC24DD248A299B29AC29D1
:104C2000BD29282B392B4A2B5B2B2050304040408C
:104C3000504809F464C020911803309119033EA72D
:104C40002DA74FA558A95093190340931803FA01B3
:104C500080818251F401E80FF11DA1806280E38020
:104C60002480CA010E942506FF2400271127102F47
:104C70000F2DFE2CEE24BB24CC24DD24DA2CCC24F6
:104C8000BB24AA247724882499244301772466240A
:104C9000A628B728C828D928332444245524A22874
:104CA000B328C428D528EA28FB280C291D2935E07B
:104CB00015950795F794E7943A95D1F7E60EF71E08
:104CC000081F191FEFA5F8A9E08EBB27A12F902F71
:104CD0008F2D878BC801AA27BB27868BE12EFF2447
:104CE00000271127E58A80912302816080932302A7
:104CF00080E00E9498002DA53EA538AB2FA74FA5B8
:104D000058A950934401409343018FB7F8949927D1
:104D100010921A028FBF0E94171B86C380910A024D
:104D2000882361F5209138033091390340913A038B
:104D300050913B03EFB7F894FF2760911B037091EC
:104D40001C0380911D0390911E03E0909201F0904E
:104D5000930100919401109195016E0D7F1D801FAC
:104D6000911FEFBF209338033093390340933A03E8
:104D700050933B0310920A020E94A8050E94F7007C
:104D800043C00E94F7005B016C018FB7F89499272C
:104D90001092C0028FBF1FEFE12E1FEFF12E1FEF09
:104DA000012F1FE7112F60E0EAECF2E0808581FF20
:104DB0001CC080819181A281B381A6019501281B2D
:104DC000390B4A0B5B0BDA01C9012481358146811D
:104DD0005781281B390B4A0B5B0B2E153F054007EB
:104DE00051071CF479018A0161E0399633E0E23120
:104DF000F307E1F6662309F417C31E141F04100617
:104E000011062CF0C601B5010E94F8120DC3E09204
:104E10003803F092390300933A0310933B0381E087
:104E200080930A02A8019701C601B5010E94A80556
:104E3000FBC29091280280910901981709F4F4C2ED
:104E400090930901992319F40E94B518EDC28FEFD0
:104E500080930901E9C2110F20919803812F8223C9
:104E6000C1F0E92FFF27EE0FFF1FED53FD4F4081EB
:104E7000518111821082812F8095282320939803DD
:104E8000992339F463E0CA010E947903110F91E07C
:104E9000E3CF9F5F9830F8F2C7C280910C01E82FF2
:104EA000FF27EE0FFF1FED53FD4F6081718141E041
:104EB0000E946618B9C28FB7F894992720912E03E3
:104EC00020930D0123E0209329018FBF80910D01D4
:104ED0008330B9F0843028F4813069F0823078F47E
:104EE00008C0853091F0853070F0863009F09CC2A2
:104EF0000EC080E001C081E00E946F0395C282E095
:104F0000FBCF83E0F9CF84E0F7CF85E0F5CF86E0F3
:104F1000F3CF1092B902A0901603B09017038091BE
:104F200094038330D1F0843028F4813071F08230E2
:104F300080F407C08530C9F0853098F08630E9F4F8
:104F400018C080E00E9468116FC281E00E94681161
:104F500028C082E00E94681126C083E00E94681188
:104F600026C084E00E946811D1C085E00E946811CB
:104F70001CC186E00E9468111AC18330C1F08430E0
:104F800030F4813071F0823009F04EC20CC08530AF
:104F900009F40BC1853008F4B9C0863009F044C269
:104FA00006C180E001C081E00E94D4113DC280E0D2
:104FB0000E948F02882309F452C0909035038FB766
:104FC000F894C82E80913101833009F041C080915E
:104FD00010018915E9F58091C702882309F0FEC107
:104FE000F4C1ED2DE695E695E695FF274D2D552765
:104FF000E953FD4F9A012770307081E090E002C0C4
:10500000880F991F2A95E2F7809520812823208315
:105010000093300112C00F5F1F4F0130110511F4D2
:1050200000E010E0D02E802F0E94A9028823C9F64C
:105030000E151F0581F74FEF50E04093C8028FEF28
:105040008093100181E08093310188E10E949800F3
:10505000CFBE992021F4B092D201A092D1010E943A
:10506000A402882309F4E0C1E090B7028FB7F89456
:10507000F82E80913301833009F03FC080911101F7
:105080008E15D9F580913703882309F0B8C1ACC1DA
:105090009095A923A0836093320125C06F5F7F4F55
:1050A0006130710511F460E070E0862F8695869579
:1050B0008695E82FFF27E95CFC4FA081462F5527F6
:1050C0009A012770307081E090E002C0880F991F2C
:1050D0002A95E2F7982F8A2F8923D1F66017710756
:1050E000E9F64FEF50E0409391018FEF809311016B
:1050F00081E0809333010E94D300FFBEEE2009F0CF
:1051000093C1B092BF02A092BE028EC18FB7F89435
:10511000C82E80913C01833009F041C08091170175
:105120008823E9F580919F03882309F077C16DC139
:10513000ED2DE695E695E695FF274D2D5527E15691
:10514000FC4F9A012770307081E090E002C0880F18
:10515000991F2A95E2F780952081282320830093C8
:105160003B0112C00F5F1F4F0130110511F400E029
:1051700010E0D02E802F0E947B028823C9F60E15E6
:105180001F0581F74FEF50E0409324038FEF80938A
:10519000170181E080933C0181E20E949800CFBE1C
:1051A000B0923203A09231033FC180E001C081E0A0
:1051B0000E94FF1039C1AC9880912D01813011F40B
:1051C0000E94C61C8FB7F894992710922D01109257
:1051D0002C0162C98FB7F894992720911D02209362
:1051E0000E0123E020932B018FBF80910E018823B5
:1051F00011F481E0B9C0813009F016C182E0B4C079
:105200000E94C61C11C183E10E9498000DC18FB796
:10521000F89499272091030220930F0123E0209313
:105220002F018FBF80910F01882321F0813009F079
:10523000FBC003C0159A1D9A02C0A09AA89A4AE022
:1052400050E060E070E084E00E941E01EDC02FB7E6
:10525000F89433278091C8028093100183E08093F3
:1052600031012FBF80911001809335030FC02FB7FC
:10527000F8943327809191018093110183E080930A
:1052800033012FBF809111018093B70283E06CC07E
:105290000E947102C9C01D9815988EE1B5CF0E9479
:1052A0007602C2C0A898A0988FE1AECF80E00E949D
:1052B0003D1280913501813011F40E9471028FB747
:1052C000F89499271092350110923401E5C881E0D5
:1052D0000E943D1280913701813011F40E947602C4
:1052E0008FB7F89499271092370110923601D4C8DD
:1052F0002FB7F8943327809145018093150183E0FF
:10530000809338012FBF209115018FB7F89499270A
:10531000209316018FBF222321F0213009F084C091
:1053200008C00EE012E022E04DE250E063E080E0D1
:1053300007C000E112E022E04CE250E063E081E0CF
:105340000E94D71B71C02FB7F89433278091240394
:105350008093170183E080933C012FBF8091170158
:10536000882309F061C084E00E94B2015DC00E9400
:10537000DE1C5AC089B78F7789BFAB98A3988091FC
:105380003E01813011F40E94DE1C8FB7F8949927FA
:1053900010923E0110923D010C944C220E94D401C7
:1053A00043C00E94701D40C0AD98A59880914201F5
:1053B000813011F40E94701D8FB7F89499271092D4
:1053C0004201109241010C944C2281E08093100123
:1053D00010923101809334018BE138CE80913001FD
:1053E000E82EFF24870117CE81E0809311011092EF
:1053F0003301809336018DE10E9498007ECE80912A
:105400003201082F1127B80149CE81E0809317019E
:1054100010923C0180933D0183E2BFCE80913B011D
:10542000E82EFF2487019ECEE0960FB6F894DEBFEB
:105430000FBECDBFDF91CF911F910F91FF90EF90E5
:10544000DF90CF90BF90AF909F908F907F906F90A4
:105450005F904F903F902F900895809191038F3FE0
:10546000B1F0282F3327F901E752FE4F8081809356
:1054700091038F3F11F48093A3038FEF80832F3F1D
:1054800031F0822F0E94E42181E090E0089580E0D5
:1054900090E008951F93CF93DF93CDB7DEB7E097E9
:1054A0000FB6F894DEBF0FBECDBF1FB7F89448E229
:1054B00050E06FEF70E089ED91E00E9444328FEF91
:1054C000809391038093A30381E08EBD88E080BF29
:1054D00083E083BF8CB59DB54AE72CB53DB5281751
:1054E000390708F44150442311F0C901F6CF92B7AF
:1054F00082B78917E9F32CB53DB592B782B7891702
:10550000E9F38CB59DB5821B930B4096B5E096955B
:105510008795BA95E1F7909393038093920313BE16
:1055200083B78EBD8EB580BF12BE1DBC1CBC8FEF75
:1055300086BF86B780937C0080B79927877090706C
:10554000892BD1F7D29AD19AD09ADA9AD99AD89A45
:1055500015BA8FEF84BBD498DC9816B81DBC1CBC60
:1055600087B7846087BF8EB5887F84608EBD0E94B8
:105570002D2A8823E1F71092050210929F0342E042
:1055800050E06FEF70E086E993E00E9444321092A1
:1055900037031092C70210920D021092D30110929D
:1055A000C9028FEF80931702E3E8F1E08FEF9FEFDE
:1055B000918380831282339621E0EF38F207C1F79E
:1055C0000E940207609333038091000190910101D2
:1055D0000196AA27BB278093240290932502A093CB
:1055E0002602B093270280B7886080BF8BE083BF1C
:1055F00086EE81BF87B7826087BF0E9425058CE554
:1056000093E090934401809343018E98B89A8C98CC
:105610008FEF8093620210921F031092200310926A
:10562000210310922203B89AD69AD59A8FB7F8948C
:10563000992720910601309107018FBF30936802AE
:10564000209367020E94320F29A73AA74BA75CA7B5
:105650006DA77EA78FA798ABDE019196FE01B99644
:1056600088E001900D928150E1F7DE015196FE0134
:10567000B19688E001900D928150E1F7DE015996D4
:10568000FE01719688E001900D928150E1F7A6E24B
:10569000B3E0FE01799688E001900D928150E1F728
:1056A00080910801992790931C0280931B028FE13F
:1056B00080931A038AE180932F030E94320F29A757
:1056C0003AA74BA75CA76DA77EA78FA798ABDE0173
:1056D0009196FE01B99688E001900D928150E1F714
:1056E000DE011196FE01B19688E001900D92815085
:1056F000E1F7DE011996FE01319688E001900D92E6
:105700008150E1F7A6E2B3E0FE01399688E001900E
:105710000D928150E1F7A6E2B3E0FD0137969C912E
:1057200080818D939083319783E0E932F807B9F750
:1057300081E08093120210929C0380931E021092CB
:10574000250380E090E0A0E0B0E08093D401909346
:10575000D501A093D601B093D70110929601109273
:1057600097011092980110929901109206021092DE
:10577000070210920802109209020E94590886EA54
:1057800091E09093D0018093CF018FEF8093A70198
:105790008093A60189E292E0909319038093180305
:1057A00084E0809323020E942D2A8823E1F7812F31
:1057B00099278FBF78940E94B71E1092B8028091EB
:1057C000000190910101E091CF01F091D00183831C
:1057D000892F992782830E940207707060587C4F3E
:1057E000CB01AA27BB27AC01BD01440F551F661F83
:1057F000771F480F591F6A1F7B1F81E00E94620FAD
:10580000109246010E94B71E44E650E060E070E04E
:1058100087E00E94620F8FB7F894482F55274BC03E
:1058200087B7992783709070892B19F4E5E0F0E031
:1058300013C080B7992787709070892BD1F781B7F3
:1058400092B7891B8C3030F082B7853F18F4E3E0C3
:10585000F0E002C0E2E0F0E087B7887BC1F480911D
:105860007D008B7FA1F46E9912C08AB190919A004D
:10587000892B887161F48091740082FD08C0379B88
:1058800003C081E090E005C085E090E002C080E0C8
:1058900090E025B78E1708F4E82FFF27E452FF4F5A
:1058A000E491237E2062E22BE5BF78948895F894FA
:1058B00085B78F7D85BF809191038F3F09F4B0CF6D
:1058C000282F3327F901E752FE4F808180939103FF
:1058D0008F3F11F48093A3038FEF80832F3F09F450
:1058E0009FCF4FBF822F0E94E42195CF78941F92C3
:1058F0000F920FB60F9211242F923F924F925F9208
:105900006F927F928F929F92AF92BF92CF92DF92CF
:10591000EF92FF920F931F932F933F934F935F93B9
:105920006F937F938F939F93AF93BF93CF93DF93A7
:10593000EF93FF93C6B5D7B58FB7F894282E0E9482
:1059400008069B012C1B3D0B442755272B013C01CE
:10595000421A530A640A750A80912101909122012A
:105960008530910521F0069709F0E0C0BFC086E0C0
:1059700090E0909322018093210131E0332E309208
:1059800018021092230180E00E944608E0911F0255
:10599000F091200241AABB27A72D962D852D80AB23
:1059A000C301AA27BB2787A7872D9927AA27BB272B
:1059B00086A7E0911F02F091200285A5882309F4B3
:1059C00084C06081655077274F01860E971EF401D1
:1059D0002081E1808281A3809927AA27BB27BA2F43
:1059E000A92F982F8827332744275527522F44273C
:1059F00033272227FF24002711278701FF24EE24C5
:105A00002E293F29402B512BBB24CC24DD242A29CD
:105A10003B294C295D29822B932BA42BB52B841970
:105A20009509A609B7098383292F3A2F4B2F5527AC
:105A300022839D014427552721838B2F9927AA274D
:105A4000BB278083C09824E0A40180E090E00E94FE
:105A5000D918C09AF4012081E1808281A38099271E
:105A6000AA27BB27BA2FA92F982F88273327442787
:105A70005527522F442733272227FF240027112799
:105A80008701FF24EE242E293F29402B512BBB24D4
:105A9000CC24DD242A293B294C295D29822B932BF8
:105AA000A42BB52B840D951DA61DB71D8383292F0F
:105AB0003A2F4B2F552722839D01442755272183B9
:105AC0008B2F9927AA27BB278083E0911F02F09193
:105AD0002002818185FF02C03092D80183E00E94BC
