S01800006275696C642F6D6963617A2F6D61696E2E73726563E5
S11300000C9472000C949A090C94A4090C94AE09F3
S11300100C94B8090C94C2090C94CC090C940C0EE1
S11300200C94D6090C9491000C9491000C94861BAA
S11300300C94241D0C9464090C947A090C94520AAF
S11300400C9453090C94F81A0C9491000C9491009C
S11300500C9491000C94E0090C9491000C94910080
S11300600C946F090C9491000C9491000C949100E1
S11300700C9491000C9491000C9491000C949100B8
S11300800C9491000C949E170C949100631F072705
S11300900A270D2713271627192720272327DA27AE
S11300A0DD27E027282B2B2B2E2B402B5F2B622BBD
S11300B0702B9E2BED2CFC2C122D152D172D372D6E
S11300C0472D582D5B2D5F2D622D682D792D8A2D9E
S11300D08D2D9F2DA22D132EB52DCD2DD02D0008A5
S11300E01C18141011241FBECFEFD0E1DEBFCDBF0A
S11300F011E0A0E0B1E0E0E6F9E600E00BBF02C0E9
S113010007900D92AA31B107D9F713E0AAE1B1E043
S113011001C01D92A63CB107E1F70E944A2E0C943F
S1130120AF340C9400008FB7F894992708958FBFCB
S11301300895282F9FB7F894E82FFF27EF51FE4F1B
S113014080818F3F81F4E091C303E21771F40BC007
S11301502093B10304C0FF27EF51FE4F2083209367
S1130160C30320E007C025E005C08091B1038F3FA1
S113017091F7EECF892F99278FBF822F9927089562
S113018086E00E9499009927089587E00E949900CB
S1130190992708958FB7F894992760931B018FBF0F
S11301A084E00E94990008952FB7F8943327809132
S11301B01F028093050182E0809320012FBF80916C
S11301C00501882329F4B89AC09888E00E94990010
S11301D008958FE00E9499009927089582E20E9471
S11301E099009927089589E10E9499009927089513
S11301F08AE10E94990099270895EF920F931F9323
S1130200AE2D99E0899FF0011124E652FD4F408301
S11302105183628373830483158326833783A17098
S113022080858E7F8A2B826080878DE00E94990072
S11302301F910F91EF9008957FB7F89462B72091C2
S11302404B0130914C0140914D0150914E0106B645
S113025001FE0FC081B792B7280F311D411D511DFA
S11302602F5F3F4F4F4F5F4F290F311D411D511DD0
S113027004C0260F311D411D511D872F99278FBFA3
S1130280CA01B9010895AF92BF92CF92DF92EF9263
S1130290FF920F931F93F82E5A016B010E941C01C9
S11302A0AB01BC0181E0E82E960185018F2D0E94EF
S11302B0FD001F910F91FF90EF90DF90CF90BF90C2
S11302C0AF900895982F969596959695E9EDF2E05E
S11302D0E90FF11D877021E030E002C0220F331FC7
S11302E08A95E2F780818223992708950F931F93BB
S11302F0CF93DF93182F8FB7F894282F3327022F2B
S113030080912901882359F581E080932901109374
S113031048032FBF8FB7F8949927379A8FBF8FB7A9
S1130320F894C82FDD279C2F80910D018730A9F404
S113033080912901813021F482E10E94990009C051
S1130340823059F48091480380930D0183E08093B7
S11303502901CFBF80E090E025C09FBFFBCF8091F3
S11303604803811711F42FBFF5CF812F0E9462013A
S1130370882319F085E090E014C0E12FE695E69516
S1130380E695FF27E752FD4F177081E090E002C029
S1130390880F991F1A95E2F72081282B208380E08B
S11303A090E00FBFDF91CF911F910F91089583309B
S11303B0A9F0843028F4813069F0823068F408C0F0
S11303C0853081F0853060F0863071F081E00FC0B7
S11303D080E00BC081E009C082E007C083E005C073
S11303E084E003C085E001C086E00E94760199277D
S11303F008958FB7F89499272091740020932D03C2
S11304008FBF08950E94F90180912D038E7F80692A
S113041080932D03809374000895982F9695969554
S11304209695E6E1F2E0E90FF11D877021E030E0F6
S113043002C0220F331F8A95E2F780818223992715
S11304400895EF92FF920F931F93CF93DF93982F0A
S11304508FB7F894E82E80912F01833009F045C0BE
S113046080910F01891709F040C0809116028823FA
S113047009F045C03EC0EF2DE695E695E695FF27C9
S11304804F2D5527EA5EFD4F9A012770307081E0A9
S113049090E002C0880F991F2A95E2F78095208189
S11304A028232083C0932E0111C02196C230D10588
S11304B011F4C0E0D0E0FC2E8C2F0E940D028823A2
S11304C0D1F6C017D10789F74FEF50E040930C02E3
S11304D08FEF80930F0181E080932F0188E10E94C8
S11304E09900EFBE80E090E010C0EFBE81E090E0A4
S11304F00CC082E080930F0110922F01F2CF809103
S11305002E01082F1127E801D0CFDF91CF911F9141
S11305100F91FF90EF900895982F96959695969544
S1130520EFEBF3E0E90FF11D877021E030E002C04A
S1130530220F331F8A95E2F7808182239927089539
S11305409FB7F894292F3327422F90910F019817C2
S113055041F480912F01833021F42FBF81E090E09A
S113056008954FBF80E090E0089580E00E94A002CB
S11305709927089581E00E94A00299270895982F51
S1130580969596959695E7EDF2E0E90FF11D877043
S113059021E030E002C0220F331F8A95E2F7808108
S11305A08223992708958091B403833099F084308D
S11305B028F4813099F0823078F412C0853031F01B
S11305C0853030F0863071F4E8E031C0E8E02CC0CA
S11305D0E8E027C0E8E022C0E8E01DC0E8E018C079
S11305E0E8E013C08330C9F0843028F4813079F016
S11305F0823080F409C08530B1F0853088F08630CF
S1130600A9F02FE1E0E014C0E0E02EE111C0E0E049
S113061023E00EC0E0E024E00BC0E0E021E008C0ED
S1130620E0E022E005C0E0E026E002C0E0E025E0F2
S1130630622F7FB7F894809115028E7F8093150204
S113064087B1982F9F71829586958695837019F04E
S113065080E090E012C0822F8850863118F081E04B
S113066090E00BC040E050E03327892F99272817EA
S1130670390711F441E050E0CA01982F9170990FA5
S1130680809115028178262F2F71422F440F440F39
S1130690892B842B80931502332727B9E83059F529
S11306A08091B2039091B30321E08638920718F049
S11306B087E090E01FC0833C910518F086E090E04D
S11306C019C08136910518F085E090E013C080339D
S11306D0910518F084E090E00DC08831910518F080
S11306E083E090E007C00C9718F082E090E002C02D
S11306F080E090E0E82FE770887D8E2B886D992745
S113070086B9872F99278FBF089591E09093C802E7
S11307108093B4030E94D30280E090E00895DC014A
S11307208C918251FD01E80FF11D84858E3329F5EA
S1130730AE59B14011F56623D9F48091C7028F5F99
S11307408093C702E091D701F091D801208133272B
S1130750322F222781819927282B392B8091000160
S1130760909101012817390719F484818F5F8483DC
S113077080912C028D7F80932C0208951F93809189
S1130780B803882321F190E011E02091B803822F6F
S11307908123C1F0E92FFF27EE0FFF1FEE52FD4F1B
S11307A04081518111821082812F809528232093CA
S11307B0B803992339F463E0CA010E948F03110F2F
S11307C091E0E3CF9F5F983010F4110FDECF1F91BB
S11307D00895FC0182819927582F44278181992704
S11307E0482B592BCA01892F9927869586958370A2
S11307F090708230910559F08330910559F0892B1E
S113080019F420E030E008C02CE93FEF05C022E0F5
S113081030E002C028E030E0CA0184E0989F812DD6
S1130820992711248230910559F08330910559F0AC
S1130830892B19F480E090E008C08CE99FEF05C093
S113084082E090E002C088E090E0280F391F2A5F20
S11308503F4FCF01820F931F0895282F9FB7F8941D
S1130860662349F0E82FFF27E85CFC4F808188234A
S113087011F021E006C0E22FFF27E85CFC4F608303
S113088020E0892F99278FBF822F99270895CF932E
S1130890DF93FC01DC011196ED0129813327322F0E
S11308A02227818199278062282B392B2183232FAA
S11308B03327298380E090E0DF91CF910895E82FDA
S11308C08FB7F894282F332790E0FF27E85CFC4F7C
S11308D08081861709F491E02FBF892F9927089505
S11308E060E080E00E945F0499270895882311F056
S11308F06E9A08956E980895882311F06F9A08955A
S11309006F98089580E00E947604BA9ABB98B99AC9
S1130910B89A6C9A80E00E947C046B986A9881E093
S11309200E947604709A8DB18C7F8DB908950F93CF
S11309301F93CF93DF93182F8FB7F894C82FDD2719
S11309400C2F61E080E00E942D04882321F0CFBFAA
S113095085E090E024C0809105018823A1F4809172
S11309602001823081F409C082E08093200110923A
S113097005010E948204B89AC0981093020180E095
S11309800FBF99270CC080912001882369F38FB78A
S1130990F8949927109238038FBF81E0F1CFDF914B
S11309A0CF911F910F9108951F93182F81E00E94FA
S11309B076041FB9779BFECF8FB199271F910895B5
S11309C08F929F92AF92BF92CF92DF92EF92FF925B
S11309D00F931F93CF93DF938FB7F8949927C09009
S11309E0BD03D090BE0380902B0390902C03C09144
S11309F0D002D091D1022091470130914801BAE050
S1130A00AB2EB12CAC0EBD1E2A153B0508F45901C2
S1130A108FBF7401EC0EFD1E86010C0F1D1F14C048
S1130A20C114D10419F0F801808101C080E00E9452
S1130A30D4048114910411F0F70180832196089461
S1130A40E11CF11C0F5F1F4FC5010197C817D9079F
S1130A5038F381E00E947C049FB7F894C114D10458
S1130A6031F0CC0EDD1EF60180818FB901C01FB8B4
S1130A70D093D102C093D002892F99278FBF80E0F1
S1130A8090E0DF91CF911F910F91FF90EF90DF9055
S1130A90CF90BF90AF909F908F9008952FB7F89408
S1130AA0332750934801409347019093BE038093AA
S1130AB0BD0370932C0360932B031092D102109208
S1130AC0D0022FBF452B29F08FB10E94E004992753
S1130AD0089589E00E94990080E090E008958FB71E
S1130AE0F894992710923C038FBF08958FB7F89418
S1130AF0992710923A038FBF08950F931F93182FCD
S1130B008FB7F894282F3327022F8091310188233F
S1130B1099F491E0909331011093D8022FBF809102
S1130B203401882321F48BE10E94990002C0909340
S1130B30350180E090E023C08091D802811711F440
S1130B402FBFF7CF812F0E94BF02882319F085E0C1
S1130B5090E014C0E12FE695E695E695FF27E9526B
S1130B60FD4F177081E090E002C0880F991F1A951D
S1130B70E2F72081282B208380E090E00FBF1F91B3
S1130B800F910895DF92EF92FF920F931F938FB707
S1130B90F894282F3327D22E91B782B746B79817E7
S1130BA011F041FF02C02FBF6AC08091CF02882399
S1130BB0E1F10E941C01E0903403F09035030091B0
S1130BC0360310913703209196013091970140919B
S1130BD09801509199016E197F09800B910B62174E
S1130BE073078407950720F01092CF0271E01EC0AE
S1130BF02E0D3F1D401F511F80914B0190914C01C0
S1130C00A0914D01B0914E01281B390B4A0B5B0B8F
S1130C10273E31054105510540F4822F223010F062
S1130C2070E005C070E082E002C070E086EE682FDC
S1130C30615000B601FCFDCF82B7681709F46F5FFD
S1130C4020914B0130914C0140914D0150914E0146
S1130C50DA01C9010196A11DB11D860F911DA11DC7
S1130C60B11D82179307A407B50710F4622F60958E
S1130C7061BFDFBE772319F08CE00E9499001F91B9
S1130C800F91FF90EF90DF900895AFB7F894BB27D2
S1130C90E1E0E093CF0260933403709335038093D3
S1130CA03603909337032093960130939701409332
S1130CB0980150939901AFBF0E94C2050895EF9225
S1130CC0FF920F931F93CF93DF93DC01FC01BE9639
S1130CD060E070E0E280FF2400271127102F0F2D21
S1130CE0FE2CEE24ED012EA5332744275527522F41
S1130CF044273327222781819927AA27BB27DC0190
S1130D0099278827282B392B4A2B5B2B83819927FA
S1130D10AA27BB27282B392B4A2B5B2BE22AF32A41
S1130D20042B152B80E0E81680E0F80680E0080725
S1130D3080E8180711F061E070E0CB01DF91CF91FA
S1130D401F910F91FF90EF9008958FB7F8946091E1
S1130D50D4027091D5022CB53DB506B602FE04C08E
S1130D606F5F7F4F2CB53DB599278FBF8827992793
S1130D70CB017727662744275527622B732B842BB7
S1130D80952B0895AF92BF92CF92DF92EF92FF928C
S1130D900F931F93CF93DF938C010E94A506F80154
S1130DA0BE96A280BB24CC24DD24DC2CCB2CBA2C14
S1130DB0AA24E801EEA4FF24002711271E2D0027F2
S1130DC0FF24EE242181332744275527A901332703
S1130DD02227E22AF32A042B152B238133274427C5
S1130DE05527E22AF32A042B152BAE28BF28C02A44
S1130DF0D12A6A197B098C099D090E9498322DEC2D
S1130E003CEC40EE51E40E94F9310E9461327B01D6
S1130E108C010E941C016E197F09800B910BDF91DC
S1130E20CF911F910F91FF90EF90DF90CF90BF90E3
S1130E30AF90089580917002843018F080E090E0C3
S1130E400895E091D701F091D80140E02081332743
S1130E50322F222781819927282B392B8091000159
S1130E60909101012817390709F441E081E04827EE
S1130E70842F99270895CF92DF92EF92FF920F93D8
S1130E801F936C01FC01E080F18002811381809149
S1130E909A0190919B01A0919C01B0919D01A801A0
S1130EA09701281B390B4A0B5B0BCA01B9010E943D
S1130EB098322091DC013091DD014091DE015091A6
S1130EC0DF010E9472330E94613220910F0230913F
S1130ED010024091110250911202260F371F481F31
S1130EE0591FE20EF31E041F151FF601E082F18262
S1130EF0028313830E941A0799271F910F91FF9071
S1130F00EF90DF90CF90089580E88093D6011092FF
S1130F1023021092B5031092B00310921C0208959C
S1130F20CF93DF93FC0115A6DC019E96ED011B8295
S1130F301A82198280E886A7DF91CF9108952F92B3
S1130F403F924F925F926F927F928F929F92AF9255
S1130F50BF92CF92DF92EF92FF920F931F93CF93A2
S1130F60DF93CDB7DEB729970FB6F894DEBF0FBE77
S1130F70CDBF6FB76983F89420902F023090300270
S1130F804090310250903202662477248824EEE4A3
S1130F90AE2E73E8B72ECC24DD24EE24FF2400E02B
S1130FA010E0222D332D442D552D662D772D882DBF
S1130FB090E00E9478302A833B834C835D836E8368
S1130FC07F8388879987822E932EA42EB52E2401A1
S1130FD0350100E20E947631A22EB32EC42ED52E06
S1130FE0A301920156954795379527952A0D3B1DE8
S1130FF04C1D5D1D57FF05C05F772F5F3F4F4F4F5F
S11310005F4F20932F02309330024093310250936C
S11310103202E9818E2F99278FBFCA01B90129961F
S11310200FB6F894DEBF0FBECDBFDF91CF911F91F5
S11310300F91FF90EF90DF90CF90BF90AF909F9073
S11310408F907F906F905F904F903F902F90089576
S1131050EF92FF920F931F930E94A5067B018C01D0
S11310602091720230917302409174025091750282
S113107080916C0290916D02A0916E02B0916F020A
S1131080820F931FA41FB51FE216F306040715076A
S113109030F082179307A407B50758F005C08217EC
S11310A09307A407B507E0F5E816F9060A071B0736
S11310B0B8F59C01AD012E193F09400B510B2130AD
S11310C060E8360760E0460760E0560768F180E0B4
S11310D090E8A0E0B0E0E80EF91E0A1F1B1FE092A2
S11310E07202F0927302009374021093750280E00E
S11310F090E8AFEFBFEFE80EF91E0A1F1B1F205048
S113110030484040504020936C0230936D0240932D
S11311106E0250936F0220E030E840E050E014C0CB
S113112020E030E040E050E080937202909373023C
S1131130A0937402B093750210926C0210926D0227
S113114010926E0210926F02A901B7012CB53DB541
S1131150C9018E199F0903968417950720F0B901D8
S11311606D5F7F4F02C0640F751F6115710511F427
S113117061E070E0615070407BBD6ABD80E186BF74
S113118087B7806187BF1F910F91FF90EF900895FB
S11311900F931F930FB7F894112760937202709303
S11311A07302809374029093750220936C023093BF
S11311B06D0240936E0250936F020E9428080FBF85
S11311C01F910F91089597B79F7D97BF90E296BFA7
S11311D0882319F08EB5806402C08EB58F7B8EBDD6
S11311E087B7806287BF80E090E00895EAE7F2E085
S11311F01082399682E0E23CF807D1F78FB7F89471
S11312009927109270028FBF0895AF92BF92CF9228
S1131210DF92EF92FF920F931F93CF93DF93CDB79B
S1131220DEB728970FB6F894DEBF0FBECDBF20E01F
S113123070E0E0910001F091010132E14DE65CE4DF
S11312406FE4809101019E2F28960FB6F894DEBFBB
S11312500FBECDBFDF91CF911F910F91FF90EF9003
S1131260DF90CF90BF90AF900895AF92BF92CF928E
S1131270DF92EF92FF920F931F93F82E5A016B01A6
S11312800E941C01AB01BC01EE24960185018F2D47
S11312900E94FD001F910F91FF90EF90DF90CF907F
S11312A0BF90AF9008951F920F920FB60F92112422
S11312B08F9383B783BF00B600FCFDCF8F910F904F
S11312C00FBE0F901F90189578941F920F920FB62F
S11312D00F9211240F900FBE0F901F9018957894C1
S11312E01F920F920FB60F9211240F900FBE0F9002
S11312F01F90189578941F920F920FB60F92112495
S11313002F933F938F939F932FB7F8943327809114
S1131310D4029091D50201969093D5028093D40281
S11313202FBF9F918F913F912F910F900FBE0F90E0
S11313301F9018951F920F920FB60F9211240F90C1
S11313400FBE0F901F9018951F920F920FB60F9219
S113135011240F900FBE0F901F9018951F920F929B
S11313600FB60F9211240F900FBE0F901F90189577
S11313701F920F920FB60F9211240F900FBE0F9071
S11313801F9018951F920F920FB60F9211240F9071
S11313900FBE0F901F9018951F920F920FB60F92C9
S11313A011240F900FBE0F901F9018951F920F924B
S11313B00FB60F9211240F900FBE0F901F90189527
S11313C01F920F920FB60F9211242F933F934F93B6
S11313D05F936F937F938F939F93AF93BF93EF9399
S11313E0FF9344B155B178948FB7F894992720911D
S11313F01502322F3695317021708FBF2223D9F414
S113140033988091C802813021F0823009F039C0CC
S11314100AC0332351F05093300340932F0383E1E8
S11314200E9499002EC0332319F40E94D30229C0CC
S11314301092C80226C08FB7F89499278FBF2FB790
S1131440F894332786B1582F5770482F4072987DEF
S1131450942B952B8074977B982B90619F77892F81
S1131460992786B9887D842B852B8773806199277A
S113147086B9887D842B852B877B8069992786B9DB
S11314802FBFFF91EF91BF91AF919F918F917F916A
S11314906F915F914F913F912F910F900FBE0F90DD
S11314A01F9018951F920F920FB60F9211242F932D
S11314B03F934F935F936F937F938F939F93AF93D8
S11314C0BF93EF93FF9383B783BF00B600FCFDCFB8
S11314D081B799270196AA27BB2720914B01309108
S11314E04C0140914D0150914E01280F391F4A1F64
S11314F05B1F20934B0130934C0140934D0150935B
S11315004E0178940E94C205FF91EF91BF91AF9173
S11315109F918F917F916F915F914F913F912F9107
S11315200F900FBE0F901F9018951F93CF93DF93CA
S1131530982F8FB7F894182F80914001833009F0C9
S113154045C080911801891709F040C080910E02AE
S1131550882309F049C03EC09095A923A0836093D5
S11315603F0125C06F5F7F4F6230710511F460E069
S113157070E0862F869586958695E82FFF27E25F93
S1131580FD4FA081462F55279A012770307081E0C6
S113159090E002C0880F991F2A95E2F7982F8A2FAE
S11315A08923D1F66C177D07E9F64FEF50E040939D
S11315B02E038FEF8093180181E08093400186E22F
S11315C00E9499001FBF80E090E014C01FBF81E01B
S11315D090E010C082E0809318011092400181E0F5
S11315E08093410188E2ECCF80913F01C82FDD2731
S11315F0BE01B8CFDF91CF911F910895EF92FF9272
S11316000F931F93CF93DF93982F8FB7F894E82EFF
S113161080912901833009F045C080910D0189171B
S113162009F040C08091D902882309F046C03EC029
S1131630EF2DE695E695E695FF274F2D5527E752C2
S1131640FD4F9A012770307081E090E002C0880F4E
S1131650991F2A95E2F78095208128232083C0933F
S1131660280111C02196C730D10511F4C0E0D0E0A3
S1131670FC2E8C2F0E9462018823D1F6C017D1075B
S113168089F74FEF50E0409348038FEF80930D01AB
S113169081E08093290182E10E949900EFBE80E0FD
S11316A090E011C0EFBE81E090E00DC087E0809330
S11316B00D01109229013798F1CF80912801082F4C
S11316C01127E801CFCFDF91CF911F910F91FF90A8
S11316D0EF9008951F93CF93DF93982F8FB7F894CB
S11316E0182F80912B01833009F045C080910E01A1
S11316F0891709F040C08091DB01882309F049C0B3
S11317003EC09095A923A08360932A0125C06F5FF2
S11317107F4F6230710511F460E070E0862F86958A
S113172086958695E82FFF27E552FE4FA081462F28
S113173055279A012770307081E090E002C0880F2D
S1131740991F2A95E2F7982F8A2F8923D1F66C17CF
S11317507D07E9F64FEF50E0409326028FEF809328
S11317600E0181E080932B0185E10E9499001FBF47
S113177080E090E014C01FBF81E090E010C082E0E0
S113178080930E0110922B0181E080932C0187E15C
S1131790ECCF80912A01C82FDD27BE01B8CFDF919D
S11317A0CF911F910895982F80913801833009F0CB
S11317B047C080911501891709F042C08091130137
S11317C020E030E08F3F11F421E030E0232BF9F4E6
S11317D08F3F19F42FEF30E00EC0282F3327F90183
S11317E0EA54FC4F8081809313018F3F11F480935E
S11317F014018FEF8083209345018FEF80931501AF
S113180081E08093380181E20E94990016C082E051
S1131810809315011092380180913901813069F467
S11318200E94F90180912D038A7680932D03809381
S11318307400909891981092390180E090E0089596
S113184081E090E008950F931F93CF93DF93182FB7
S11318508FB7F894282F3327022F80912F018823E4
S113186031F581E080932F0110930C022FBF8FB7C5
S1131870F894C82FDD279C2F80910F018230A9F4A2
S113188080912F01813021F488E10E94990009C0E0
S1131890823059F480910C0280930F0183E080938D
S11318A02F01CFBF80E090E025C09FBFFBCF809188
S11318B00C02811711F42FBFF5CF812F0E940D0266
S11318C0882319F085E090E014C0E12FE695E695B1
S11318D0E695FF27EA5EFD4F177081E090E002C0B5
S11318E0880F991F1A95E2F72081282B208380E026
S11318F090E00FBFDF91CF911F910F91089580E089
S11319000E94230C9927089581E00E94230C9927B3
S113191008950F931F93182F0FB7F89461E080E098
S11319200E942D04882371F5109302018091050112
S11319308823A9F580912001823089F588E00CC0C4
S11319400E94820480912001882349F481E08093DD
S1131950200110921F028AE00E9499002AC08091FF
S113196071028F3F31F5E0910401EE2311F11CC0A7
S11319701092030104C0FF27EF58FD4F108210920C
S1131980040117C081E090E002C0880F991F1A95E6
S1131990E2F720911F01282B20931F010AC0809198
S11319A020018823E1F6CCCF809103018F3F19F702
S11319B0DFCF802F99278FBF80E090E01F910F9198
S11319C008951F938FB7F894282F3327122F8091EF
S11319D0C203882321F02FBF81E090E013C081E08F
S11319E08093C20380911C0190911D01049721F4FE
S11319F081E00E94890C03C086E00E9499001FBF09
S1131A0080E090E01F9108951F9383E00E94970463
S1131A109927182F882319F083E00E94890C812FBD
S1131A2099271F910895CF92DF92EF92FF920F931F
S1131A301F93CF93DF938C01F62E6A01E22E8FB7AA
S1131A40F894C82FDD2760E080E00E945F048823BB
S1131A5021F0CFBF80E090E01EC0CFBF0F0D111D5D
S1131A60802F80680E94D404F82E16950795802F45
S1131A70807C0E94D4040E2D0AC0EE2DFF27E01BAB
S1131A80F109EC0DFD1D80810E94D4040150002356
S1131A90A1F78F2D9927DF91CF911F910F91FF907F
S1131AA0EF90DF90CF900895CF93DF93CDB7DEB75B
S1131AB02C970FB6F894DEBF0FBECDBF8FB7F89446
S1131AC0282FAE014F5F5F4FDA01E0E4F3E088E0D6
S1131AD001900D928150E1F78091240290912502AA
S1131AE08987892F99278A87809176029091770236
S1131AF08B87892F99278C872FBF2CE060E080E6A5
S1131B0091E00E94130D2C960FB6F894DEBF0FBE21
S1131B10CDBFDF91CF9108951F93CF93DF93182FFB
S1131B208FB7F894C82FDD2760E080E00E945F043F
S1131B30882321F0CFBF80E090E005C0CFBF812F84
S1131B400E94D4049927DF91CF911F91089583E0D7
S1131B500E948C0D9927089589E00E948C0D992785
S1131B600895EF92FF920F931F93CF93DF93182F53
S1131B707B01042F8FB7F894C82FDD2760E080E045
S1131B800E945F04882321F0CFBF80E090E014C05E
S1131B90CFBF1064812F99279093C3028093C20210
S1131BA00E94D404182F402F5527B70180E090E0FD
S1131BB00E944E05812F9927DF91CF911F910F919C
S1131BC0FF90EF900895C098609143017091440193
S1131BD041E08FE30E94B10D089582E090E090937C
S1131BE00B0280930A0281E08093230220E030E01C
S1131BF080910201843011F421E030E0232B29F498
S1131C0084E00E949704882319F40E94E30D089548
S1131C1084E00E94890C08951F920F920FB60F92D0
S1131C2011242F933F934F935F936F937F938F93DD
S1131C309F93AF93BF93EF93FF9380910A02909188
S1131C400B02019749F482E090E090930B02809399
S1131C500A020E94ED0D05C080911C028F5F8093E3
S1131C601C02FF91EF91BF91AF919F918F917F9152
S1131C706F915F914F913F912F910F900FBE0F90F5
S1131C801F9018951F9380911F01882309F04BC062
S1131C90109102011F3F09F046C060E00E945F04FA
S1131CA0882309F440C081E080934A038091E001D5
S1131CB08823E1F110924A0385E090E045C0923018
S1131CC069F5C09A8091030120E030E08F3F11F460
S1131CD021E030E0232BE9F4109305018F3F19F440
S1131CE02FEF30E00DC0282F3327F901EF58FD4FB7
S1131CF08081809303018F3F11F4109304011083BA
S1131D0020931F0281E0809320018AE00E949900C1
S1131D1005C0109305011092200111C0809120018B
S1131D20882369F00FC081E090E00EC08091050126
S1131D3090912001882319F2923021F0EFCF80E0B6
S1131D400E94760480E090E01F9108951F93CF9342
S1131D50DF939FB7F894C92FDD271C2F90910201C0
S1131D60981721F0CFBF81E090E03AC08FEF8093C5
S1131D70020130911F013323F1F48FB7F8949927AE
S1131D80109238038FBF0E94420ECFBF11C0209320
S1131D90020181E090E002C0880F991F4A95E2F7A2
S1131DA08095382330931F0188E00E9499001FBF5B
S1131DB080E090E015C080E065E0E32FFF270E94FB
S1131DC0F433292F492F5527CF01042E02C09595AE
S1131DD087950A94E2F780FDDACF822F8F5FEFCFE9
S1131DE0DF91CF911F910895EF92FF920F931F936C
S1131DF0CF93DF930FB7F894112781E00E94E30893
S1131E0011E0E12EF12CF0922201E09221011092D6
S1131E1023011092E001109214020FBF0FB7F8943F
S1131E2011270E948407F0920B02E0920A0210929A
S1131E30230289B78F7B89BF80E488BF8AB7806219
S1131E408ABF8AB78F7E8ABF89B7806489BF0FBF74
S1131E508FB7F894C82FDD2780911C0190911D0144
S1131E60049719F483E00E948C0DCFBF0FB7F89448
S1131E701127C09A80E00E94A60E0FBF8FB7F89476
S1131E80992722E0209339038FBFDF91CF911F91CF
S1131E900F91FF90EF90089583E00E94A60E99277A
S1131EA008951F93CF93DF938FB7F894C82FDD273E
S1131EB01C2F80910A0290910B02892B29F484E053
S1131EC00E94A60ECFBF1EC01092230280911C0256
S1131ED0882311F0B79904C00E9908C0882319F01B
S1131EE0815080931C020E94ED0D0BC081E090E0B4
S1131EF090930B0280930A0210921C0284E00E94C9
S1131F00A60E1FBFDF91CF911F9108950E948407F1
S1131F10C09AC09888E00E948C0D88E00E948C0DC5
S1131F20C09A84E00E94A60E0E94510F0895FF9269
S1131F300F931F93CF93DF93F82E8B018FB7F894F1
S1131F40C82FDD2760E080E00E945F04882321F031
S1131F50CFBF80E090E00CC0CFBF8F2D0E94D4048F
S1131F60812F99270E94D404802F0E94D40499279A
S1131F70DF91CF911F910F91FF9008951F931FB789
S1131F80F89480911B02882319F460E070E009C082
S1131F9060E08091BC03882309F461E081E0682754
S1131FA0772780912702882319F480E090E00AC003
S1131FB090E080913F03882309F491E081E0982721
S1131FC0892F9927762F6627770F770F770F24E0CD
S1131FD0880F991F2A95E1F7826E9262682B792BFC
S1131FE081E10E94970F812F99278FBF1F91089538
S1131FF08FB7F8949927609149038FBF85E0689F54
S1132000B0011124625D7E4F706488E10E94970FD5
S113201008951F938FB7F894282F332780911E01BA
S1132020882311F02FBF30C02FBF80B3992746E01B
S1132030969587954A95E1F7182F1170909178023B
S1132040809179028917D9F01917C9F484E090E0D6
S113205090931D0180931C018FB7F894992721E078
S113206020931E018FBF60E070E08DE10E94970F06
S11320700E94540DC09AC09882E00E949900109367
S1132080790287E00E9499001F910895EF92FF92D0
S11320901F93CF93DF93E0902802F0902902F70179
S11320A082A59927182F882309F41FE1C0988091ED
S11320B01402811749F0612F77276F717070606E79
S11320C0706885E10E94970F10931402F701108144
S11320D08FB7F894C82FDD2760E080E00E945F048A
S11320E0882311F0CFBF12C0CFBF8EE390E090934E
S11320F0C3028093C2028EE30E94D4041150412F84
S1132100552760E070E0C7010E944E05DF91CF9132
S11321101F91FF90EF9008950F931F93CF93DF9338
S1132120EC018FB7F894082F112762E081E00E9438
S11321305F04882321F40FBF81E090E05CC08FB777
S1132140F894992724E0209339038FBFD093CC02CD
S1132150C093CB020FBFFE0131968181298199275B
S1132160982F88273327822B932B80729C7C89831A
S1132170892F992781832981982F882733272164E0
S1132180822B932B8983892F992781831CA618A6D8
S113219019A619AA18AA1FA680E88EA761E0609361
S11321A03D034091CB025091CC028FB7F894282F75
S11321B0332780912101909122018830910511F0FB
S11321C0019711F02FBF15C082E090E09093220197
S11321D0809321016093C403509329024093280201
S11321E0109249012FBF0E94040D882311F40E940C
S11321F0461080E090E0DF91CF911F910F910895F8
S1132200FF920F931F93CF93DF93EC01F62E0FB73A
S1132210F89411270E94E903FC018FE380830FBF28
S11322201092BA031092B90361E082E00E942D0477
S1132230882319F085E090E03BC080914D038F5FC7
S113224080934D0381508B8361E084E00E942D04D0
S1132250882311F005E028C0D0932E02C0932D02EC
S1132260F092D60210925103109250038CA92DA91A
S11322709927982F88273327822B932B892B19F0A2
S1132280CE010E9447046F2DCE010E948C10992725
S1132290082F882311F400E009C00E946F05802FE5
S11322A09927082F882311F00E947605802F9927FB
S11322B0DF91CF911F910F91FF900895CF93DF93FA
S11322C0DA01422F2D3118F082E090E05EC0ED017A
S11322D08B876E83872F99278F832FB7F8943327A3
S11322E080912402909125022FBFFD018483892FC0
S11322F0992785832FB7F89433278091060190910D
S113230007012FBF8887892F992789873196818173
S113231029819927982F8827332720643868822BAE
S1132320932B8983892F99278183435F4C934D5045
S113233080910901882359F010920901642FCD017D
S11323400E9400119927282F8823A9F417C0842FED
S113235099279093CA028093C902B0932601A0934F
S113236025018EE00E94990080910901882349F497
S113237089E090E00AC08FEF80930901822F9927AA
S113238004C01092330280E090E0DF91CF91089571
S1132390AF92BF92CF92DF92EF92FF920F931F936F
S11323A0CF93DF93CDB7DEB724970FB6F894DEBF93
S11323B00FBECDBF0E941C015B016C0169837A834F
S11323C08B839C83CE0101960E943B07E091D70149
S11323D0F091D80180812181409100015091010147
S11323E09927982F88273327822B932B84179507B7
S11323F091F580919A0190919B01A0919C01B091DB
S11324009D01A6019501281B390B4A0B5B0BDA01D0
S1132410C90180509040A040B04274F12FB7F894A5
S11324203327A0929A01B0929B01C0929C01D09252
S11324309D0189819A81AB81BC818A199B09AC0970
S1132440BD0980930F0290931002A0931102B093E0
S113245012022FBF11C08091C702853068F010921C
S1132460C7024183852F99278083E091D701F0919A
S1132470D80184818F5F848329813A814B815C8177
S1132480E091D701F091D8012087BB27A52F942F85
S1132490832F8783CA01AA27BB278683252F332747
S11324A0442755272583809170028330C8F4E09136
S11324B0D701F091D801808121819927982F88270D
S11324C03327822B932B2091000130910101821735
S11324D0930731F08091C7028F5F8093C70267C072
S11324E00E941C017B018C010E94A506A601950196
S11324F02E193F09400B510B15E0220F331F441FC7
S1132500551F1A95D1F7260F371F481F591F8EE301
S11325108093B3012093B701BB27A52F942F832F5A
S11325208093B601CA01AA27BB278093B501252F42
S11325303327442755272093B4014EE951E08FEF08
S11325408093A4018093A5018DE38093A9018091D8
S1132550D2029091D302892B19F025E030E022C0F9
S11325605093D3024093D2028BE180939E018091D9
S11325700C01882319F420E030E014C010920C01FF
S11325802EE06FEF7FEF8DE30E945E119927282FD5
S1132590882339F081E080930C011092D3021092C9
S11325A0D202332781E08093CB01232B29F0809141
S11325B02C028D7F80932C0224960FB6F894DEBFF4
S11325C00FBECDBFDF91CF911F910F91FF90EF9080
S11325D0DF90CF90BF90AF900895AF92BF92CF920B
S11325E0DF92EF92FF920F931F93CF93DF935B01E0
S11325F06C01C0E0D0E0EAEDF2E0608561FFFBC170
S11326002081318142815381E480F58006811781E4
S1132610D601C501821B930BA40BB50B8E159F0528
S1132620A007B10708F4E7C160FF03C06D7F6087AE
S113263008C02E0D3F1D401F511F2083318342834C
S11326405383C43009F46EC0C53048F4C230F9F085
S1132650C33008F065C0C13009F0D3C10DC0C63025
S113266009F41BC1C63008F497C0C73009F44EC141
S1132670C83009F0C6C183C18FB7F8949927209157
S11326803C038FBF213009F0BCC18FE040C0809172
S11326904601882309F03EC0E091D701F091D801AA
S11326A0808121819927982F88273327822B932B88
S11326B08F5F9F4FA1F48091C7028F5F8093C70201
S11326C0853068F014828091000190910101E091BD
S11326D0D701F091D8018183892F99278083E091D4
S11326E0D701F091D801808121819927982F8827DB
S11326F03327822B932B8F5F9F4F09F482C18091E4
S11327002C0281FD7EC1826080932C0281E00E94B4
S1132710990077C18091F4028D7F8093F40271C196
S1132720AA986FC19FB7F89420912B01222319F422
S113273021E030E00FC080910E01823019F020E0DA
S113274030E008C040E050E02150223010F441E075
S113275050E09A01892F99278FBF222309F451C190
S11327608FB7F894C82FDD279C2F80910E018230FB
S113277009F003C180912B01813011F485E17FC000
S1132780823009F0FAC08091260280930E0183E022
S113279080932B01CFBF35C180E00E94A002882323
S11327A009F43AC09FB7F89420913101222319F417
S11327B021E030E00FC080911001813019F020E059
S11327C030E008C040E050E02150223010F441E0F5
S11327D050E09A01892F99278FBF2223E9F08FB700
S11327E0F894C82FDD279C2F80911001813099F433
S11327F080913101813021F489E10E94990009C05E
S1132800823049F48091D8028093100183E0809350
S11328103101CFBF01C09FBF81E00E94A002882385
S113282009F4EFC09FB7F89420913301222319F4DF
S113283021E030E00FC080911101813019F020E0D7
S113284030E008C040E050E02150223010F441E074
S113285050E09A01892F99278FBF222309F4D1C010
S11328608FB7F894C82FDD279C2F809111018130F8
S113287009F083C080913301813021F48AE10E9400
S1132880990088CF823009F078C0809195018093B7
S1132890110183E0809333017DCF9FB7F894209199
S11328A03C01222319F421E030E00FC0809117018C
S11328B0813019F020E030E008C040E050E02150C1
S11328C0223010F441E050E09A01892F99278FBFFC
S11328D0222309F496C08FB7F894C82FDD279C2FC4
S11328E080911701813009F048C080913C0181300A
S11328F011F482E2C4CF823009F03FC080913E03DC
S11329008093170183E080933C0144CF9FB7F894F0
S113291020914001222319F421E030E00FC080917E
S11329201801823019F020E030E008C040E050E0A7
S11329302150223010F441E050E09A01892F992768
S11329408FBF222309F45DC08FB7F894C82FDD2709
S11329509C2F80911801823081F480914001813054
S113296011F486E28CCF823041F480912E0380935F
S1132970180183E0809340010DCF9FBF42C080E0E7
S11329800E947D0580E00E947D058FB7F894C82FD2
S1132990DD2780913C01882389F491E090933C01E8
S11329A010923E03CFBF80913D01882321F483E23E
S11329B00E94990012C090933E010FC080913E0383
S11329C0882351F080E00E948C02882329F48091AE
S11329D0BF0381608093BF03CFBF2BE14FE451E07D
S11329E06FEF7FEF89E80E945E11882351F481E044
S11329F08093270106C021963996C930D10509F084
S1132A00FCCD8DE00E949900DF91CF911F910F9131
S1132A10FF90EF90DF90CF90BF90AF900895EF922A
S1132A20FF920F931F9380911302882361F52091E5
S1132A305403309155034091560350915703EFB717
S1132A40F894FF2760913403709135038091360325
S1132A5090913703E0909601F090970100919801CE
S1132A60109199016E0D7F1D801F911FEFBF209360
S1132A7054033093550340935603509357031092D5
S1132A8013020E9445060E941C010E94ED121F9130
S1132A900F91FF90EF900895AF92BF92CF92DF9283
S1132AA0EF92FF920F931F930E941C015B016C0134
S1132AB08FB7F89499271092CF028FBF8FEFE82E2B
S1132AC08FEFF82E8FEF082F8FE7182F60E0EAEDD5
S1132AD0F2E0808581FF1CC080819181A281B38155
S1132AE0A6019501281B390B4A0B5B0BDA01C901BE
S1132AF02481358146815781281B390B4A0B5B0B96
S1132B002E153F05400751071CF479018A0161E045
S1132B10399633E0EB32F307E1F66623D9F01E145D
S1132B201F04100611062CF0C601B5010E94ED1217
S1132B3011C0E0925403F09255030093560310938E
S1132B40570381E080931302A8019701C601B501E0
S1132B500E9445061F910F91FF90EF90DF90CF9058
S1132B60BF90AF9008950F931F93CF93DF93182FC7
S1132B70EB01042FE82FFF27EE0FFF1FEE52FD4F4E
S1132B801182108210920C01E091D202F091D302D2
S1132B90309721F08091B80380FF0EC081E08093CC
S1132BA00C0103C081E10E9499001123B9F4602F44
S1132BB0CE010E948F0312C020812D5033276781DC
S1132BC07727762F662786819927682B792BAF0183
S1132BD083850E945E11882341F3E4CFDF91CF9176
S1132BE01F910F9108959B0180910C01882349F452
S1132BF06091D2027091D3026217730711F40E949C
S1132C00B31508950F931F93CF93DF93082F8091EB
S1132C10EB028D7F8093EB020E946F05E0912D0201
S1132C20F0912E02DF01D49684A99927982F882742
S1132C30ED0129813327822B932B892B41F080913D
S1132C405003909151038983892F992784ABC091B4
S1132C502D02D0912E020E9476058091B9039091A5
S1132C60BA03892B71F48FEF809309018B8599271F
S1132C70182F402FBE010E94F315193811F4109239
S1132C802701DF91CF911F910F9108951F93CF9347
S1132C90DF93C0912501D09126016091C902CE0134
S1132CA00E940011482F5527442381F08FEF809311
S1132CB009018B859927182F6091250170912601B0
S1132CC00E94F315193811F410922701DF91CF9166
S1132CD01F9108951F93182F81E090E09093220193
S1132CE0809321011092E0010E94420E8FB7F89464
S1132CF0992710931B018FBF84E00E9499001F91B4
S1132D0008951F93182F0E94F90180912D038A7F43
S1132D1080932D03809374000E94F90180912D0308
S1132D20846080932D038093740081E08093390143
S1132D3080913A018823B9F480911601882319F00F
S1132D40813089F406C00E94020280E00E94D30B05
S1132D500AC00E94020281E00E94D30B10931A025F
S1132D6085E20E9499001F910895EF92FF920F93BC
S1132D701F93F62EE22E9FB7F894292F33279091B4
S1132D801601981711F02FBF9CC02FBF8FB7F8946E
S1132D90282F332780913901813041F582E08093D7
S1132DA039012FBF8FB7F894992750932B02409382
S1132DB02A0210931E0200931D02E0924A016093BE
S1132DC0C5031092520310923A018FBF0E94F90179
S1132DD08FB7F894182F90912D03916C9F7E909348
S1132DE02D036F2D772760FD0BC011C0882321F4BC
S1132DF02FBF84E090E06FC02FBF85E090E06BC0F0
S1132E00906290932D0384E0809339015DC0EE209D
S1132E1009F449C083E080933901209152038091E1
S1132E204A01281778F4E0911D02F0911E02E20F86
S1132E30F11D8081809373002F5F20935203909340
S1132E40740046C0292F2E7F20932D038091C50343
S1132E5081FF07C08D7F8093C503206120932D03DC
S1132E6003C09E7790932D0380912D03809374006B
S1132E7081E08093390180911601882319F0813013
S1132E8039F506C00E94020280E00E94D30B20C0E4
S1132E900E94020281E00E94D30B10921A0285E282
S1132EA00E94990015C061FF08C085E08093390134
S1132EB09F7B906190932D0307C081E0809339013B
S1132EC01FBF81E090E007C080912D0380937400C0
S1132ED01FBF80E090E01F910F91FF90EF90089545
S1132EE00F931F932FB7F894332780914501809354
S1132EF0150183E0809338012FBF209115018FB70E
S1132F00F8949927209316018FBF222319F02130BA
S1132F1091F408C007E112E022E04DE250E063E0E2
S1132F2080E007C009E112E022E04CE250E063E0F7
S1132F3081E00E94B5161F910F9108951F920F9280
S1132F400FB60F9211242F933F934F935F936F9378
S1132F507F938F939F93AF93BF93EF93FF930E94BD
S1132F60F90180913901843009F4D9C0863021F007
S1132F70833009F001C141C090917100987F809124
S1132F803A01813041F49034B1F583E08093390102
S1132F902091520347C0983171F583E08093390141
S1132FA09091520380914A0120912D03981708F4BF
S1132FB075C0922F9E7F90932D038091C50381FF4E
S1132FC007C08D7F8093C503906190932D0303C048
S1132FD02E7720932D0380912D038093740081E03C
S1132FE08093390180911601882309F487C08130C8
S1132FF009F0C2C089C084E0A7C080913A019091D1
S11330005203813009F044C0E0911D02F0911E0288
S1133010E90FF11D809173008083209152032F5F8B
S11330202093520380914A012817A0F4332799274B
S113303001972817390749F48091C50382FD05C01B
S113304080912D038F7B80932D0380912D0380939A
S1133050740092C090912D03292F2E7F20932D036D
S11330608091C50381FF09C08D7F8093C5032061D2
S113307020932D038091710003C09E7790932D03BC
S113308080912D038093740081E08093390174C092
S113309080914A0120912D03981778F4E0911D0244
S11330A0F0911E02E90FF11D8081809373009F5FF0
S11330B090935203209374005FC0922F9E7F90934D
S11330C02D038091C50381FF07C08D7F8093C503C5
S11330D0906190932D0303C02E7720932D0380914C
S11330E02D038093740081E080933901809116014F
S11330F0882321F0813009F03FC006C00E940202FB
S113310080E00E94D30B38C00E94020281E00E943A
S1133110D30B10921A0285E20E9499002DC080916F
S1133120C5038E7F8093C50390912D039F7D90935B
S11331302D0380917100887F883049F0809171005F
S1133140887F803121F081E00E94811615C0392FDB
S1133150306430932D0390912A02990F20E08091DE
S11331603A01813009F421E0922B9093730086E0B8
S11331708093390130937400FF91EF91BF91AF9127
S11331809F918F917F916F915F914F913F912F917B
S11331900F900FBE0F901F901895CF92DF92EF9271
S11331A0FF920F931F93CFB6F894DD240E949F07DC
S11331B0DC01CB0166E470E00E9400345BE0E52EA4
S11331C0F12CE80EF91EF092C103E092C0030E94B4
S11331D0A50600271127A80197010E94C808CFBEA1
S11331E01F910F91FF90EF90DF90CF9008951F9360
S11331F0CF93DF938FB7F894C82FDD271C2F8091CE
S11332002101909122010897C9F489E00E948C0D54
S113321083E00E94A60EC09A81E090E09093220180
S1133220809321018FB7F894992723E020931B0101
S11332308FBF84E00E949900CFBF30C0C0988091B6
S1133240C403882311F085E001C084E00E948C0D42
S113325083FD09C080E00E948C0D83FF04C085E0DB
S113326090E020E003C083E090E021E0909322010D
S113327080932101C09A1FBF222341F0109249017B
S113328083E00E94A60E0E94CD1808C00E94A506E5
S113329020E431E040E050E00E94C808DF91CF9183
S11332A01F910895EF92FF920F931F93CF93DF9393
S11332B08B018091C2029091C30286FF40C18F7B33
S11332C08F3309F08EC1C0914301D09144015881DC
S11332D050930D0280910A0290910B028530910562
S11332E009F443C08630910509F48AC0029709F0B5
S11332F01FC185E090E090930B0280930A024091F5
S1133300D601852F99270196242F332728173907AB
S11333104CF1B79906C00E9904C0451B4150409327
S1133320D60140910D024A32E8F44423A1F0BE01D3
S11333306F5F7F4F483018F047E050E007C086E0E9
S113334090E090930B0280930A02552780E090E06E
S11333500E944E0546C110922302C09A84E00E9446
S1133360A60EE3C00E94860F3CC186E090E09093D5
S11333700B0280930A0280912702882309F439C042
S113338080913F038823A9F5898185FF32C08F810D
S11333904E812FB7F89433276091760270917702AB
S11333A02FBF9927982F88275527842B952B86176D
S11333B0970759F08F812E819927982F88273327D3
S11333C0822B932B8F5F9F4FA1F48981877081306B
S11333D081F4C09AC0988AE00E948C0DC09AC0986B
S11333E040910D0247502896BE018FE30E94B10D13
S11333F0F8C040910D02475055272896BE01A6CF2C
S1133400C09A80911C02882339F484E00E94A60E9D
S113341080911C02882311F0B7990AC00E9B08C042
S11334209091B003992321F080910D028B3038F4F0
S113343080914301909144010E9490073DC09130D6
S113344001F5E091B503FF27EE0FFF1FEE0FFF1FFD
S1133450E85AFC4F2081318142815381E09143013C
S1133460F091440121ABBB27A52F942F832F80AB70
S1133470CA01AA27BB2787A7252F33274427552707
S113348026A78091B5039927019668E070E00E9411
S113349014348093B5038091B00381508093B003BA
S11334A0882351F080914301909144010E94900738
S11334B01092B5031092B00380910D02FE01E80F43
S11334C0F11D808187FF31C0012B79F1698167701B
S11334D0E0914301F0914401623019F5A091280272
S11334E0B0912902109709F1809121019091220154
S11334F00797D9F4ED019B8183819817B1F487B7BD
S11335008F7E87BF908181E08CA7E90FF11D8291A6
S1133510319688A780818F7789A780E00E946A16F8
S113352004C0613011F48BE02AC00E94510F59C0CD
S113353010922302C09A84E00E94A60E52C08E33D9
S113354009F04FC0C09A80912101909122010897FF
S1133550C9F4C09889E00E948C0DC09A83E00E944F
S1133560A60E81E090E090932201809321018FB711
S1133570F894992723E020931B018FBF84E00E94D5
S113358099002FC08091C403882349F484E090E01B
S113359090932201809321010E94F71822C083E0B6
S11335A00E94A60E83E090E0909322018093210173
S11335B00E949F07DC01CB0166E371E00E940034A6
S11335C06BE0E62EF12CE80EF91EF0929401E092E5
S11335D093010E94A50600271127A80197010E94C4
S11335E0C808DF91CF911F910F91FF90EF9008953C
S11335F01F920F920FB60F9211242F933F934F9364
S11336005F936F937F938F939F93AF93BF93EF9346
S1133610FF932FB1E0912B03F0912C03309739F0F5
S11336208091D0029091D102E80FF91F20838091FC
S1133630D0029091D10201969093D1028093D0024E
S113364080E00E947C0440914701509148018091A0
S1133650D0029091D1028417950718F40E94E004D7
S11336601CC060912B0370912C038091BD03909139
S1133670BE0310922C0310922B031092BE031092DF
S1133680BD0310924801109247011092D10210928A
S1133690D0022FB120E00E945219FF91EF91BF9107
S11336A0AF919F918F917F916F915F914F913F91D6
S11336B02F910F900FBE0F901F9018950F931F938B
S11336C00FB7F89411274091470150914801609138
S11336D02B0370912C038091BD039091BE03109233
S11336E02C0310922B031092BE031092BD03109270
S11336F04801109247011092D1021092D00220E0AA
S11337000E9452190FBF1F910F91089578941F9230
S11337100F920FB60F9211242F923F924F925F9205
S11337206F927F928F929F92AF92BF92CF92DF92CD
S1133730EF92FF920F931F932F933F934F935F93B7
S11337406F937F938F939F93AF93BF93CF93DF93A5
S1133750EF93FF93C6B5D7B58FB7F894282E0E9480
S1133760A5069B012C1B3D0B442755272B013C012F
S1133770421A530A640A750A809121019091220128
S11337808530910521F0069709F0E0C0BFC086E0BE
S113379090E0909322018093210131E0332E309206
S11337A021021092230180E00E94E308E0912802A4
S11337B0F091290241AABB27A72D962D852D80AB18
S11337C0C301AA27BB2787A7872D9927AA27BB2729
S11337D086A7E0912802F091290285A5882309F49F
S11337E084C06081655077274F01860E971EF401CF
S11337F02081E1808281A3809927AA27BB27BA2F41
S1133800A92F982F8827332744275527522F442739
S113381033272227FF24002711278701FF24EE24C2
S11338202E293F29402B512BBB24CC24DD242A29CB
S11338303B294C295D29822B932BA42BB52B84196E
S11338409509A609B7098383292F3A2F4B2F5527AA
S113385022839D014427552721838B2F9927AA274B
S1133860BB278083C09824E0A40180E090E00E94FC
S1133870130DC09AF4012081E1808281A3809927ED
S1133880AA27BB27BA2FA92F982F88273327442785
S11338905527522F442733272227FF240027112797
S11338A08701FF24EE242E293F29402B512BBB24D2
S11338B0CC24DD242A293B294C295D29822B932BF6
S11338C0A42BB52B840D951DA61DB71D8383292F0D
S11338D03A2F4B2F552722839D01442755272183B7
S11338E08B2F9927AA27BB278083E0912802F09188
S11338F02902818185FF02C03092E00183E00E94A9
S1133900A60E87B78F7E87BF84997AC01092210252
S113391081E00E94E308E0912802F091290281816C
S113392085FF0FC087E090E09093220180932101EE
S11339300E94A50620E031E040E050E00E94C80863
S113394003C080E00E946A16849B5AC080912301C0
S1133950882391F580912102882371F511E0109359
S113396021020E94E30880B32091B003283098F428
S1133970E091B503E20FFF27E770F070EE0FFF1F31
S1133980EE0FFF1FE85AFC4F40825182628273821D
S11339902F5F2093B00310932301D093C502C093EB
S11339A0C40284992DC0992764E0969587956A95F9
S11339B0E1F7182F117001C010E0809121028130CD
S11339C0F9F4109221020E94E308109223011123BA
S11339D0B9F48091C4029091C502C81BD90B2A97EF
S11339E078F48091B003882319F081508093B00358
S11339F08091280290912902009711F00E9490076B
S1133A002FBEFF91EF91DF91CF91BF91AF919F9125
S1133A108F917F916F915F914F913F912F911F9162
S1133A200F91FF90EF90DF90CF90BF90AF909F9059
S1133A308F907F906F905F904F903F902F900F905A
S1133A400FBE0F901F90189578941F920F920FB687
S1133A500F9211241F932F933F934F935F936F9370
S1133A607F938F939F93AF93BF93EF93FF9387B706
S1133A708F7E87BF78941FB7F89480916C029091E1
S1133A806D02A0916E02B0916F020097A105B1057D
S1133A9009F051C080912101909122018530910556
S1133AA061F18630910530F48330910549F0049733
S1133AB081F51AC087309105F1F0089751F514C0CB
S1133AC0869B0FC084E090E09093220180932101B3
S1133AD00E94A50627E030E040E050E00E94C808BC
S1133AE018C00E94CD1815C00E94040D882389F4C3
S1133AF00E94F7180EC080E00AC089E00E948C0D75
S1133B0081E00E94E30883E00E94A60E87E00E9401
S1133B106A1680911C0190911D01019771F482E055
S1133B2090E090931D0180931C01DE98DE9A80E062
S1133B300E94890C02C00E942808812F99278FBFF8
S1133B40FF91EF91BF91AF919F918F917F916F9171
S1133B505F914F913F912F911F910F900FBE0F9046
S1133B601F90189561E081E00E942D048823E9F4F8
S1133B708FB7F894282F332780911C0190911D0151
S1133B80892B11F02FBF20C081E090E090931D019C
S1133B9080931C012FBFDD9A0E94A50624E130E02A
S1133BA040E050E00E94C8080FC062E081E00E943B
S1133BB05F04882319F089E090E0089561E081E0D2
S1133BC00E945F04882319F080E090E0089585E066
S1133BD090E00895EF920F931F938FB7F89499276D
S1133BE0E0901B018FBF63E081E00E945F048823A3
S1133BF059F10FB7F8941127109222011092210164
S1133C0087B78F7E87BF87B78F7D87BF83E00E948A
S1133C10A60EC09A0FBF0FB7F894112710920B028B
S1133C2010920A020E948407C09A89B78F7B89BFC9
S1133C300FBF10921D0110921C01DE98DD98DE9AD0
S1133C4083E00E94990007C08FB7F894992722E077
S1133C50209339038FBFE091CB02F091CC028FB750
S1133C60F894992720913C038FBF2130C9F54091E6
S1133C705003509151034F5F5F4F50935103409352
S1133C80500384A5882311F080E02BC0E0912D021D
S1133C90F0912E0284A925A99927982F88273327E4
S1133CA0822B932B48175907D8F486A927A999275B
S1133CB0182F00273327022B132B0115110561F050
S1133CC00E941C01AB01BC0122273327E1E0EE2E48
S1133CD081E00E94FD0007C08FE00E94990003C0AC
S1133CE08E2D0E9402161F910F91EF900895EF926E
S1133CF00F931F9389B78F7789BFA39AAB9AA69A1C
S1133D00AE98AE9A80911201109217028093180215
S1133D108FB7F894282F3327922F80913801882366
S1133D2009F045C011E0E12EE092380110924501FE
S1133D302FBF8FB7F894082F11278091390188235A
S1133D40C9F4909A919A889889981092710081E4A4
S1133D508093700010927200109274000E94F90116
S1133D6080912D0384608E7F80932D038093740053
S1133D70E09239010FBF8FB7F894082F1127902FC5
S1133D8080911501823059F580913801813021F4F8
S1133D9081E20E94990009C0823009F580914501B1
S1133DA08093150183E0809338010FBF1FC0809179
S1133DB04501882311F42FBF19C08091B6038F3FAA
S1133DC071F4E0911401EE2351F00BC01092130131
S1133DD004C0FF27EA54FC4F1082109214019FBFC5
S1133DE005C0809113018F3FA1F7F0CF0E941C0101
S1133DF0AB01BC01B1E0EB2E00EB14E020E030E0BD
S1133E0086E00E94FD0080E090E01F910F91EF900A
S1133E100895EF920F931F93A59AAD9A0E941C01E7
S1133E20AB01BC0101E0E02E04E610E020E030E04C
S1133E3087E00E94FD0080E090E01F910F91EF90D9
S1133E400895EF920F931F93A49AAC9A0E941C01B9
S1133E50AB01BC0181E0E82E01E110E020E030E09C
S1133E6084E00E94FD0080E090E01F910F91EF90AC
S1133E7008952F923F924F925F926F927F928F920A
S1133E809F92AF92BF92CF92DF92EF92FF920F93E5
S1133E901F93CF93DF93CDB7DEB7CF59D0400FB682
S1133EA0F894DEBF0FBECDBFE82FFF27E932F1053E
S1133EB010F00C94132EEA5BFF4FEE0FFF1F0590DA
S1133EC0F491E02D09940091310310913203BCE088
S1133ED08B2E912C800E911EF8018485ADE0EA2E84
S1133EE0F12CE00EF11E2585A091D701B091D801E7
S1133EF04C91FD0161819927D82ECC243327C22A05
S1133F00D32A5527542F44277727462B572BC416DB
S1133F10D506C0F48091C702843038F48091000142
S1133F20909101014817590769F0FD01C1828D2D57
S1133F3099278C93F8018089E091D701F091D801F9
S1133F40848323C02C91FD014181F4018081F70118
S1133F5060813327322F22275527242B352B99278D
S1133F60982F88277727862B972B2817390709F04E
S1133F7048C7F4018481FD019481282F3327822FBF
S1133F80891B18160CF03DC72483E091D701F091EA
S1133F90D801808121819927982F88273327822B64
S1133FA0932B20910001309101018217930710F4A3
S1133FB01092C7029401275F3F4FE1963FAF2EAFA7
S1133FC0E197F40181859401265F3F4FE7963FAF67
S1133FD02EAFE797E284A401455F5F4FE5965FAF9C
S1133FE04EAFE5972385D4011C96E396BFAFAEAFE1
S1133FF0E397A484332744275527542F432F322F84
S113400022279927AA27BB27B82FAA2799278827C9
S1134010FF24002711278701FF24EE248E299F29DE
S1134020A02BB12BBB24CC24DD248A299B29AC29C9
S1134030BD29282B392B4A2B5B2B29833A834B83AD
S11340405C83CE0101960E943B07F4013596E99604
S1134050FFAFEEAFE997F401858194012A5F3F4FEA
S1134060EF963FAF2EAFEF97E680A401495F5F4F15
S1134070ED965FAF4EAFED972781D4011896EB967E
S1134080BFAFAEAFEB97A084332744275527542FF7
S1134090432F322F22279927AA27BB27B82FAA27D5
S11340A099278827FF24002711278701FF24EE245E
S11340B08E299F29A02BB12BBB24CC24DD248A2953
S11340C09B29AC29BD29282B392B4A2B5B2BE98052
S11340D0FA800B811C81E21AF30A040B150BE982A6
S11340E0FA820B831C830E941A078823E1F424EFCD
S11340F031E040E050E0E20EF31E041F151F39EEDC
S1134100E31633E0F30630E0030730E0130758F01A
S113411080911A018F5F80931A01843008F453C18F
S11341200E94F60850C110924E0310921A01EAE759
S1134130F2E04FEFAF964FAFAF971EAA222433247D
S1134140210160E070E06DABE196AEADBFADE197EB
S11341502C91E796AEADBFADE797EC90E596AEAD8A
S1134160BFADE5978C91E396AEADBFADE397AC9050
S11341709927AA27BB276624782E892E9A2E3327BF
S113418044275527522F442733272227FF2400276B
S113419011278701FF24EE242E293F29402B512B80
S11341A0BB24CC24DD242A293B294C295D29622AFD
S11341B0732A842A952A81819281A381B481681A01
S11341C0790A8A0A9B0ABFEF6B16BFEF7B06BFEF23
S11341D08B06BFE79B0610F0108203C08081882302
S11341E021F4AF966FAFAF9705C080914E038F5FF8
S11341F080934E03621473048404950420F02DA963
S11342002EAB130124016F5F7F4F3996683071051F
S113421009F099CFAF963FADAF9737FD06C08091B7
S11342204E038F5F80934E033EAB4EA9842F992794
S113423087FD9095FC0123E0EE0FFF1F2A95E1F71F
S1134240E80FF91FE658FD4F81E08083E196AEAD9B
S1134250BFADE1978C91E796AEADBFADE797EC901B
S1134260E596AEADBFADE5972C91E396AEADBFAD8F
S1134270E397AC90332744275527542F432F322FED
S113428022279927AA27BB27B82FAA279927882747
S1134290FF24002711278701FF24EE248E299F295C
S11342A0A02BB12BBB24CC24DD248A299B29AC2947
S11342B0BD29282B392B4A2B5B2B21833283438343
S11342C05483E996AEADBFADE9978C91EF96AEAD50
S11342D0BFADEF976C90ED96AEADBFADED97EC90A2
S11342E0EB96AEADBFADEB973C91E196AEADBFADF5
S11342F0E1972C91E796AEADBFADE7972C90E5968C
S1134300AEADBFADE597AC90E396AEADBFADE39770
S1134310BC91C158DF4FB883CF57D040FF2400274A
S11343201127102F0F2DFE2CEE249927AA27BB2727
S1134330B82FAA279927882777248824992443010A
S11343407724662486299729A829B929432F552734
S113435066277727842B952BA62BB72BE82AF92AD7
S11343600A2B1B2BBB24CC24DD24DC2CCB2CBA2C19
S1134370AA24332744275527522F4427332722279B
S1134380332444245524210133242224222933298B
S113439044295529C158DF4F8881CF57D040682E12
S11343A07724882499242629372948295929A22A97
S11343B0B32AC42AD52AEA18FB080C091D09E58288
S11343C0F682078310872091DC013091DD01409152
S11343D0DE015091DF0165962CAF3DAF4EAF5FAF6C
S11343E0659720E030E0EAE7F2E007C02F5F3F4F37
S11343F039962830310509F404C5AE962FAFAE972F
S11344008081813099F7F901A3E0EE0FFF1FAA958F
S1134410E1F7E20FF31FE658FD4F81819281A381FA
S1134420B48169968CAF9DAFAEAFBFAF699725815C
S11344303681478150856D962CAF3DAF4EAF5FAF4F
S11344406D9780914E03282F3327442755272996AB
S11344502CAF3DAF4EAF5FAF299789E0AE963FAD2D
S1134460AE9738021001112443E852E0240E351EA1
S1134470A5961CAE1DAE1EAE1FAEA597A6961FAE8A
S1134480A697A7961FAEA797A8961FAEA897A9961A
S11344901FAEA997AA961FAEAA97AB961FAEAB976D
S11344A0AC961FAEAC97AD961FAEAD9788249924F9
S11344B0AA24BB24CC24DD24EE24A1961CAE1DAE7C
S11344C01EAE1FAEA197E5C1D1018C91813009F0D8
S11344D0DCC1F101418052806380748069962CAD07
S11344E03DAD4EAD5FAD6997421A530A640A750A31
S11344F0C301B20129962CAD3DAD4EAD5FAD2997F8
S11345000E944934DA01C901BB0F880B982FDC01E2
S1134510C058DF4F288339834A835B83C058D04017
S1134520CC57DF4F8883C458D040CB57DF4F8883A4
S1134530C558D040CA57DF4F8883C658D040C957A2
S1134540DF4F8883C758D040A6960FADA697C058B2
S1134550DF4F8881C058D040080F81E0A6969FADF8
S1134560A697091708F080E0A7961FADA797CF5725
S1134570DF4FA881C158D0401A0FE1E0A796BFAD24
S1134580A7971B1708F0E0E0810F91E0811708F06E
S113459090E0E92B182FA8962FADA897CE57DF4FA0
S11345A0F881C258D0402F0FF1E0A8968FADA8979C
S11345B0281708F0F0E08E2F820F91E0821708F0A0
S11345C090E0F92B282FA9963FADA997CD57DF4F3F
S11345D09881C358D040390FE1E0A996AFADA997AF
S11345E03A1708F0E0E08F2F830F91E0831708F06B
S11345F090E0E92B382FAA964FADAA97CC57DF4FFE
S1134600B881C458D0404B0FF1E0AA968FADAA9759
S1134610481708F0F0E08E2F840F91E0841708F01B
S113462090E0F92B482FAB965FADAB97CB57DF4F9C
S11346309881C558D040590FE1E0AB96AFADAB9728
S11346405A1708F0E0E08F2F850F91E0851708F0E6
S113465090E0E92B582FAC966FADAC97CA57DF4F5B
S1134660B881C658D0406B0FF1E0AC968FADAC97D3
S1134670681708F0F0E09E2F960F81E0961708F077
S113468080E08F2B692FAD967FADAD97C957DF4F73
S11346909881C758D040790F870FA6960FAFA69779
S11346A0A7961FAFA797A8962FAFA897A9963FAF35
S11346B0A997AA964FAFAA97AB965FAFAB97AC9664
S11346C06FAFAC97AD968FAFAD97C301B20129968A
S11346D02CAD3DAD4EAD5FAD29970E942734A19618
S11346E02CAD3DAD4EAD5FADA197260F371F481FD2
S11346F0591FA1962CAF3DAF4EAF5FAFA197F1010B
S113470045805680678070846D962CAD3DAD4EAD6E
S11347105FAD6D97421A530A640A750AC301B20168
S113472029962CAD3DAD4EAD5FAD29970E9449341D
S1134730DA01C901BB0F880B982FDC01C857DF4F82
S1134740288339834A835B83C858D040C457DF4FDA
S11347508883CC58D040C357DF4F8883CD58D0408E
S1134760C257DF4F8883CE58D040C157DF4F88836C
S1134770CF58D040C857DF4F0881C858D040080DE3
S113478081E0081508F080E0C757DF4F1881C95849
S1134790D040190DE1E0191508F0E0E0810F91E037
S11347A0811708F090E0E92B182FC657DF4F2881B6
S11347B0CA58D0402A0DF1E02A1508F0F0E08E2FF7
S11347C0820F91E0821708F090E0F92B282FC5574B
S11347D0DF4F3881CB58D0403B0DE1E03B1508F06A
S11347E0E0E08F2F830F91E0831708F090E0E92B2E
S11347F0382FC457DF4F4881CC58D0404C0DF1E0DE
S11348004C1508F0F0E08E2F840F91E0841708F027
S113481090E0F92B482FC357DF4F5881CD58D04033
S11348205D0DE1E05D1508F0E0E08F2F850F91E06C
S1134830851708F090E0E92BC257DF4F6881CE5806
S1134840D0406E0D9E2F960F802E912EA22EB32E49
S1134850C42ED82EE92EC301B20129962CAD3DAD4C
S11348604EAD5FAD29970E944934A5962CAD3DAD60
S11348704EAD5FADA597260F371F481F591FA5964C
S11348802CAF3DAF4EAF5FAFA59749E050E0240E8B
S1134890351EAE965FADAE975F5FAE965FAFAE97D7
S11348A058300CF411CEA1966CAD7DAD8EAD9FAD9C
S11348B0A19729962CAD3DAD4EAD5FAD29970E94D1
S11348C0493429AF3AAF4BAF5CAF69968CAD9DAD1F
S11348D0AEADBFAD6997A9962CAD3DAD4EAD5FAD04
S11348E0A997820F931FA41FB51F29AD3AAD4BADF5
S11348F05CAD280F391F4A1F5B1F29AF3AAF4BAF7E
S11349005CAFA5966CAD7DAD8EAD9FADA597299698
S11349102CAD3DAD4EAD5FAD29970E9449346D96E7
S11349208CAD9DADAEADBFAD6D97880D991DAA1D23
S1134930BB1D280F391F4A1F5B1F21962CAF3DAFAB
S11349404EAF5FAF21972224332444245524662498
S11349507724882499241DA61EA61FA618AA19AA7E
S11349601AAA1BAA1CAAAAE7B2E02396BFAFAEAF4D
S113497023972396EEADFFAD23978081813009F014
S1134980D8C181819281A381B48129AD3AAD4BAD67
S11349905CAD821B930BA40BB50B9C01AD01550FB1
S11349A0220B322FA9012D968CAF9DAFAEAFBFAFB6
S11349B02D972E962FAF2E972F962FAF2F97609669
S11349C02FAF609761962FAF61972A96AFAC2A9765
S11349D02B96BFAC2B972C96CFAC2C972D96DFAC97
S11349E02D97E22EF22E022F122F2A2D3B2D4C2D25
S11349F05D2D6E2D7E2D8E2D9E2D0E947830C057FC
S1134A00DF4F2883C059D040CF56DF4F3883C15978
S1134A10D040CE56DF4F4883C259D040CD56DF4FE9
S1134A205883C359D040CC56DF4F6883C459D04013
S1134A30CB56DF4F7883C559D040CA56DF4F8883A1
S1134A40C659D040C956DF4F9883C759D040022F6A
S1134A50020D81E0021508F080E0CF56DF4F188187
S1134A60C159D040130DE1E0131508F0E0E0810FC7
S1134A7091E0811708F090E0E92B182FCE56DF4F14
S1134A802881C259D040240DF1E0241508F0F0E04B
S1134A908E2F820F91E0821708F090E0F92B282FD7
S1134AA0CD56DF4F3881C359D040350DE1E035157F
S1134AB008F0E0E08F2F830F91E0831708F090E077
S1134AC0E92B382FCC56DF4F4881C459D040460DCE
S1134AD0F1E0461508F0F0E08E2F840F91E0841782
S1134AE008F090E0F92B482FCB56DF4F5881C55979
S1134AF0D040570DE1E0571508F0E0E08F2F850F07
S1134B0091E0851708F090E0E92B582FCA56DF4F43
S1134B106881C659D040680DF1E0681508F0F0E0EE
S1134B209E2F960F81E0961708F080E08F2BC956D0
S1134B30DF4F7881C759D040790D870F202E312E51
S1134B40422E532E642E752E892E982E2396EEAD6A
S1134B50FFAD2397E580F6800781108521962CAD63
S1134B603DAD4EAD5FAD2197E21AF30A040B150B70
S1134B7057016801DD0CAA08BA2C6501A801970148
S1134B806A2DAE2CB32EC42ED52EE62EF62E062F6D
S1134B90162F2A962FAD2A972B963FAD2B972C963E
S1134BA04FAD2C972D965FAD2D972E966FAD2E970A
S1134BB02F967FAD2F9760968FAD609761969FADCE
S1134BC061970E947830C856DF4F2883C859D04077
S1134BD0C756DF4F3883C959D040C656DF4F488384
S1134BE0CA59D040C556DF4F5883CB59D040C4561C
S1134BF0DF4F6883CC59D040C356DF4F7883CD59FB
S1134C00D040C256DF4F8883CE59D040C156DF4FC3
S1134C109883CF59D0400DA5020F81E09DA50917B7
S1134C2008F080E01EA5C756DF4FA881C959D040BF
S1134C301A0FE1E0BEA51B1708F0E0E0810F91E038
S1134C40811708F090E0E92B182F2FA5C656DF4FE7
S1134C50F881CA59D0402F0FF1E08FA5281708F02A
S1134C60F0E08E2F820F91E0821708F090E0F92B8C
S1134C70282F38A9C556DF4F9881CB59D040390F1A
S1134C80E1E0A8A93A1708F0E0E08F2F830F91E044
S1134C90831708F090E0E92B382F49A9C456DF4F59
S1134CA0B881CC59D0404B0FF1E089A9481708F0DE
S1134CB0F0E08E2F840F91E0841708F090E0F92B38
S1134CC0482F5AA9C356DF4F9881CD59D040590F68
S1134CD0E1E0AAA95A1708F0E0E08F2F850F91E0D0
S1134CE0851708F090E0E92B582F6BA9C256DF4FC7
S1134CF0B881CE59D0406B0FF1E08BA9681708F04A
S1134D00F0E09E2F960F81E0961708F080E08F2B3D
S1134D10692F7CA9C156DF4F9881CF59D040790FB4
S1134D20870F0DA71EA72FA738AB49AB5AAB6BABA8
S1134D308CAB2396AEADBFAD239719962396BFAF28
S1134D40AEAF2397A25CB24009F013CE822D832923
S1134D5084298529862987298829892911F12DA55E
S1134D603EA54FA558A969A97AA98BA99CA90E9417
S1134D7092327B018C01222D332D442D552D662D2D
S1134D80772D882D992D0E9492329B01AC01C80188
S1134D90B7010E94F93165966CAF7DAF8EAF9FAFBE
S1134DA065972FB7F894332765968CAD9DADAEAD5E
S1134DB0BFAD65978093DC019093DD01A093DE0184
S1134DC0B093DF0121968CAD9DADAEADBFAD219703
S1134DD080930F0290931002A0931102B0931202D9
S1134DE089AD9AADABADBCAD80939A0190939B0114
S1134DF0A0939C01B0939D0180914E038093700217
S1134E002FBF80912C028E7F80932C020CC70E94AE
S1134E10C81109C70E94F40E06C78FB7F8949927E2
S1134E20109239030BC00E94EA1DFDC60E94E10CDA
S1134E30FAC68FB7F89499271092C2038FBFF3C6AE
S1134E400E940910F0C68FB7F894992720910201A7
S1134E508FBF223009F464C0233030F4222359F088
S1134E60213009F0E0C647C0233009F473C0243070
S1134E7009F0D9C69CC0C0988FB7F894082F1127A1
S1134E8080911C0190911D01029799F583E090E0B7
S1134E9090931D0180931C0168E170E08DE10E94F4
S1134EA0970F81E08093780210921E0180B39927B6
S1134EB046E0969587954A95E1F7817090708093C6
S1134EC079020E94C50081E00E948C0D6FE772E0B8
S1134ED08CE10E94970F0E94F80F0E94BE0F66E5B6
S1134EE07AE287E10E94970F6FEF70E885E10E94F4
S1134EF0970F0FBF98C6C09886E00E948C0D0E9441
S1134F00F80F0E94BE0F0E94540DC09AC0980E94D0
S1134F10A70DC09A81E00E94A60E0E94C00083C61D
S1134F20C0988FB7F894082F11270E947004882323
S1134F3011F00FBF0AC00FBF83E50E94D40480E0C4
S1134F400E94D40480E00E94D404C09A82E00E94AB
S1134F50A60E69C68FB7F8949927209121018FBFB7
S1134F60243039F0283041F02230F1F40E94461008
S1134F705AC60E94F71857C6C0980E94AC0DC09A32
S1134F800E944C0F2FB7F894332781E090E0909360
S1134F902201809321012FBF63E080912802909128
S1134FA029020E94CA003FC60E944C0F3CC60E94C0
S1134FB0E30D39C60E945E1B36C60E94D40033C678
S1134FC0A0914301B09144011C919D01210F311D19
S1134FD0F9018081881F8827881FFD0183A7F901B3
S1134FE080818F77FD0181A721503040F9018081B4
S1134FF0FD0180A7A0914301B0914401FD013281DC
S11350008FB7F894992720911B028FBF222309F4AC
S113501090C0832F99279695879596958795837049
S113502090708230910541F5878146812FB7F894BD
S1135030332760917602709177022FBF9927982FBA
S113504088275527842B952B8617970719F481E019
S113505090E06CC0FD018781268140E050E09927F3
S1135060982F88273327822B932B8F5F9F4F11F420
S113507041E050E0CA015AC0039709F0E0C29E0122
S11350802B5F3F4F40E453E088E0FA010190AF0109
S1135090F90101929F018150C1F79E012B5D3F4FA1
S11350A0AE014B5F5F4F88E0FA010190AF01F90157
S11350B001929F018150C1F79E01235F3F4FAE01D2
S11350C04B5D5F4F88E0FA010190AF01F901019255
S11350D09F018150C1F79E012B5E3F4FAE01435F9C
S11350E05F4F88E0FA010190AF01F90101929F013D
S11350F08150C1F79E01235E3F4FAE014B5E5F4F6F
S113510088E0FA010190AF01F90101929F018150F9
S1135110C1F748E050E0BE01635E7F4FCD010696C3
S11351200E949B34892B09F08AC203C0882309F4A6
S113513086C21D3008F483C220914301309144019A
S113514025963FAF2EAF2597F9012281822F99270B
S113515016E0969587951A95E1F7039719F468E098
S113516070E002C062E070E0822F992796958795DF
S11351709695879583709070039719F488E090E072
S113518002C082E090E025962EAD3FAD25972A5FC0
S11351903F4F25963FAF2EAF259740E050E020E0EB
S11351A030E02596EEADFFAD2597E80FF91F259663
S11351B08EAD9FAD2597069725969FAF8EAF259709
S11351C005C08191480F511D2F5F3F4F26173707A8
S11351D0C4F32596EEADFFAD259763818FEF8093E1
S11351E0BB038FB7F894782F20E030E0E7E8F1E0D4
S11351F0808191818417950731F48281861709F49F
S11352005CC12093BB032F5F3F4F3396243031059D
S113521079F77FBF9091BB033FB7F8949F3F21F08C
S113522080912401891799F420912401822F9927D0
S1135230FC01EE0FFF1FE80FF91FE957FE4F5183E2
S1135240408362832F5F2370209324010CC0892F35
S11352509927FC01EE0FFF1FE80FF91FE957FE4FD6
S1135260518340836283832F99278FBF0FB7F894AC
S1135270112725968EAD9FAD25970E94E903FC0169
S113528090810FBF2596EEADFFAD259783A58823AA
S113529009F4CDC19F3309F0CAC1878146812FB774
S11352A0F894332760910601709107012FBF992765
S11352B0982F88275527842B952B8617970761F0FD
S11352C0878126819927982F88273327822B932B30
S11352D08F5F9F4F09F0ABC12596EEADFFAD2597CB
S11352E083859927863021F08D3309F0A0C1E7C06A
S11352F02FB7F89433278BB394E089278BBB2FBF48
S113530080912701882309F092C125968EAD9FAD27
S113531025970E945F06882309F489C125968EADDE
S11353209FAD25970E94C20669837A838B839C83F1
S1135330209100013091010120935C01232F332738
S113534020935B012596EEADFFAD25972485458519
S11353503327322F22275527242B352B20935E0108
S1135360232F332720935D0160936201272F382F69
S1135370492F5527209361019C01442755272093E9
S11353806001692F77278827992760935F01CE01F1
S113539001960E943B0780936B0189819A81AB81BE
S11353A0BC8180936601292F3A2F4B2F55272093D8
S11353B065019D0144275527209364018B2F99276C
S11353C0AA27BB27809363016091DC017091DD0102
S11353D08091DE019091DF010E94663220E432E484
S11353E04FE050E00E94D53360936A01272F382F95
S11353F0492F5527209369019C0144275527209361
S11354006801692F77278827992760936701E091BE
S1135410D701F091D801808121819927982F88277D
S11354203327822B932B80936D01892F99278093A7
S11354306C01848180936E018091700280936F016E
S11354408091D9019091DA0180937101892F992774
S1135450809370018091CD029091CE02809373016C
S1135460892F99278093720180914B0390914C036B
S113547080937501892F99278093740185E0809327
S113548084011092830186E0809386011092850145
S1135490209100013091010182E390E0289FA00156
S11354A0299F500D389F500D1124425350406627B8
S11354B0772788E00E944301BAC07FBFB8C0259611
S11354C08EAC9FAC25972CE030E0820E931E25967F
S11354D0AEADBFAD25978C9182518401080F111D8B
S11354E0F80180818E3309F0A2C080912C0280FDE6
S11354F09EC0CD010E945F06882309F498C0F8017C
S11355008181E2802381A480332744275527542FA7
S1135510432F322F22279927AA27BB27B82FAA2740
S113552099278827FF24002711278701FF24EE24C9
S11355308E299F29A02BB12BBB24CC24DD248A29BE
S11355409B29AC29BD29282B392B4A2B5B2B2050B6
S113555030404040504809F46AC0209131033091F2
S1135560320338AF2FAB25964EAD5FAD25975093E0
S1135570320340933103DA018C918251F401E80F34
S1135580F11DA1806280E3802480CA010E94C206CA
S1135590FF2400271127102F0F2DFE2CEE24BB24EF
S11355A0CC24DD24DA2CCC24BB24AA24772488241C
S11355B09924430177246624A628B728C828D92823
S11355C0332444245524A228B328C428D528EA28FF
S11355D0FB280C291D29E5E015950795F794E79418
S11355E0EA95D1F7E60EF71E081F191F2596EEADB2
S11355F0FFAD2597E08EBB27A12F902F8F2D878B92
S1135600C801AA27BB27868BE12EFF240027112778
S1135610E58A80912C02816080932C0280E00E94B4
S113562099002FA938AD25963FAF2EAF2597259623
S11356304EAD5FAD259750934401409343018FB71E
S1135640F8949927109223028FBF0E94510FEBC246
S11356500E940F15E8C20E944C15E5C290913302D6
S113566080910901981709F4DEC2909309019923E6
S113567019F40E944616D7C28FEF80930901D3C252
S1135680E0912D02F0912E0284A925A99927982F43
S113569088273327822B932B892B19F0CF010E9463
S11356A047046091D60280912D0290912E020E94AF
S11356B08C10882309F4B7C20E94E900B4C20E9486
S11356C0BE03B1C280910C01E82FFF27EE0FFF1F2C
S11356D0EE52FD4F6081718141E00E94B315A3C277
S11356E08FB7F89499272091480320930D0123E064
S11356F0209329018FBF80910D018330B9F084304C
S113570028F4813069F0823078F408C0853091F053
S1135710853070F0863009F086C20EC080E001C08A
S113572081E00E9485037FC282E0FBCF83E0F9CF52
S113573084E0F7CF85E0F5CF86E0F3CF1092C8027E
S1135740A0902F03B09030038091B4038330D1F044
S1135750843028F4813071F0823080F407C08530C1
S1135760C9F0853098F08630E9F418C080E00E94D2
S1135770FE0A59C281E00E94FE0A28C082E00E940B
S1135780FE0A26C083E00E94FE0A26C084E00E942E
S1135790FE0ACFC085E00E94FE0A19C186E00E947D
S11357A0FE0A17C18330C1F0843030F4813071F0C7
S11357B0823009F038C20CC0853009F408C1853044
S11357C008F4B7C0863009F02EC203C180E001C0DE
S11357D081E00E946A0B27C20E94B502882309F463
S11357E051C090904F038FB7F894C82E8091310127
S11357F0833009F040C0809110018915E1F5809152
S1135800D702882309F0E7C1DBC1ED2DE695E695C3
S1135810E695FF274D2D5527E952FD4F9A01277034
S1135820307081E090E002C0880F991F2A95E2F75A
S113583080952081282320830093300112C00F5FBC
S11358401F4F0130110511F400E010E0D02E802F1D
S11358500E94BF028823C9F60E151F0581F74FEF7A
S113586050E04093D8028FEF8093100181E0809341
S113587031010E94F300CFBE992021F4B092DA01E5
S1135880A092D9010E94BA02882309F4CCC1E09005
S1135890C6028FB7F894F82E80913301833009F053
S11358A03FC0809111018E15D9F58091530388234F
S11358B009F0A2C196C19095A923A08360933201F7
S11358C025C06F5F7F4F6130710511F460E070E0B7
S11358D0862F869586958695E82FFF27ED5AFC4FEF
S11358E0A081462F55279A012770307081E090E0FF
S11358F002C0880F991F2A95E2F7982F8A2F8923CF
S1135900D1F660177107E9F64FEF50E04093950127
S11359108FEF8093110181E0809333010E94F8009E
S1135920FFBEEE2009F07FC1B092CE02A092CD025C
S11359307AC18FB7F894C82E80913C01833009F066
S113594040C0809117018823E1F58091BF0388232B
S113595009F063C157C1ED2DE695E695E695FF275D
S11359604D2D5527E154FC4F9A012770307081E08A
S113597090E002C0880F991F2A95E2F78095208154
S11359802823208300933B0112C00F5F1F4F013077
S1135990110511F400E010E0D02E802F0E948C023B
S11359A08823C9F60E151F0581F74FEF50E0409389
S11359B03E038FEF8093170181E080933C010E94A6
S11359C0EE00CFBEB0924C03A0924B032CC180E0FA
S11359D001C081E00E94950A26C1AC9880912D01F6
S11359E0813011F40E94211F8FB7F89499271092E7
S11359F02D0110922C0122CA8FB7F8949927209177
S1135A00260220930E0123E020932B018FBF809167
S1135A100E01882311F481E0BDC0813009F003C177
S1135A2082E0B8C00E94211FFEC084E14EC08FB73F
S1135A30F894992720910C0220930F0123E02093DE
S1135A402F018FBF80910F01882321F0813009F04D
S1135A50EAC003C0159A1D9A02C0A09AA89A4AE007
S1135A6050E060E070E085E00E944301DCC02FB7A5
S1135A70F89433278091D8028093100183E08093B7
S1135A8031012FBF8091100180934F030FC02FB7B6
S1135A90F8943327809195018093110183E08093DA
S1135AA033012FBF809111018093C60283E072C03D
S1135AB00E947F0CB8C01D9815988FE106C00E9403
S1135AC0840CB1C0A898A09880E20E949900ABC051
S1135AD080E00E94210280913501813011F40E94FE
S1135AE07F0C8FB7F89499271092350110923401E6
S1135AF0A5C981E00E94210280913701813011F40F
S1135B000E94840C8FB7F894992710923701109251
S1135B10360194C90E94701786C02FB7F8943327B2
S1135B2080913E038093170183E080933C012FBF53
S1135B3080911701882309F076C084E02BC00E946D
S1135B40771E71C089B78F7789BFAB98A39880916E
S1135B503E01813011F40E94771E8FB7F894992783
S1135B6010923E0110923D0169C98FB7F8949927AC
S1135B7020912E032093180123E0209340018FBF2E
S1135B8080911801882311F485E004C0813009F064
S1135B904AC086E00E94D70146C00E94091F43C044
S1135BA0AD98A59880914201813011F40E94091F9B
S1135BB08FB7F894992710924201109241013EC97F
S1135BC081E08093100110923101809334018CE1C3
S1135BD00E94990050CE80913001E82EFF24870165
S1135BE02ECE81E08093110110923301809336010F
S1135BF08EE10E94990094CE80913201082F1127E2
S1135C00B8015FCE81E08093170110923C0180932C
S1135C103D0184E20E949900D4CE80913B01E82E9C
S1135C20FF248701B2CEC156DF4F0FB6F894DEBF12
S1135C300FBECDBFDF91CF911F910F91FF90EF90D9
S1135C40DF90CF90BF90AF909F908F907F906F9098
S1135C505F904F903F902F9008958091B1038F3FB4
S1135C60B1F0282F3327F901EF51FE4F8081809343
S1135C70B1038F3F11F48093C3038FEF80832F3FD1
S1135C8031F0822F0E94391F81E090E0089580E076
S1135C9090E008951F93CF93DF93CDB7DEB7E097DD
S1135CA00FB6F894DEBF0FBECDBF1FB7F89449E21C
S1135CB050E06FEF70E081EE91E00E94A8348FEF26
S1135CC08093B1038093C30381E08EBD88E080BFDD
S1135CD083E083BF8CB59DB54AE72CB53DB5281745
S1135CE0390708F44150442311F0C901F6CF92B7A3
